:020000040000FA
:1000000080313C28080008007E1480310B1F09282D
:100010000A283A282100911E0E280F281B282000AC
:10002000911E132814281B28210051088A0050080B
:100030000A0080313A282100111F1F282028292872
:100040002000111F2428252829288731F1278031F5
:100050003A282100111E2D282E283A282000111E92
:10006000322833283A28210053088A0052080A000F
:1000700080313A287E10090080313E2836308400D5
:100080009C308500DE308600003087000A309B31CE
:10009000F9238031FC01EF01A0308400003085009D
:1000A0003E309B31F32380312030840001308500C5
:1000B0003F309B31F32380317E10200090310128A6
:1000C0000130C4004408E70767086807C400440813
:1000D000860001308700303001060319702871282E
:1000E00060286708031975287628E52B67086807D4
:1000F000C4004408860001308700783001060319E7
:1001000082288328902867086807C400440886006E
:100110000130870058300106031D8F289028E52BF9
:100120006708013EC4004408E807E7019B28013046
:10013000C4004408E70767086807C400440886004D
:1001400001308700303001060319A728A828972816
:10015000E70167086807C40044088600013087008B
:10016000703001060319B528B628462A67086807C3
:10017000C400440886000130870050300106031D8A
:10018000C228C328C428462A67086807C400440850
:100190008600013087002E300106031DD028D128AB
:1001A000D8285E1601302000C4004408E707462A1C
:1001B00067086807C400440886000130870001080A
:1001C000C500C6014508F1004608F2009E31B92677
:1001D0008031710872040319EE28EF28702920007D
:1001E000DD0167086807C400440886000130870005
:1001F0000108D03EC500FF3003180030C6000030B3
:1002000046020A3003194502031C07290929013057
:100210000A290030C700C8014708CE004808CF00AF
:100220004E084F0403191529162923296708680762
:10023000C40044088600013087000108D03EC50094
:100240004508DD003A2967086807C40044088600AD
:10025000013087000108C500C6014508F7004608BF
:10026000F8009E31152680317708C93E2000C7006E
:100270004708DD006208803AC40080304402031D54
:1002800043290830610203184629472966292000BE
:100290005D08C400C501C601C7016108073CC8006C
:1002A0000130C835FF3E031D51294835890A5C29B4
:1002B000C435C50DC60DC70D890B58294408E30484
:1002C0004508E4044608E5044708E6040130200038
:1002D000E1070030E23D0430DF070030E03D7A29DD
:1002E00000302000C3000030C2000030C1000030E8
:1002F000C000E52E0130C4004408E707A9286708BC
:100300006807C40044088600013087007030010689
:1003100003198B298C294A2A67086807C4004408F6
:1003200086000130870050300106031D9829992965
:100330009A294A2A67086807C400440886000130E1
:10034000870030300106031DA629A729B2296108BC
:100350006204031DAC29AD29B229FC30DF07FF3050
:10036000E03DD22867086807C400440886000130D1
:1003700087000108C500C6014508F1004608F200E3
:100380009E31B9268031710872040319C829C92920
:10039000D2282000DD0167086807C40044088600F1
:1003A000013087000108D03EC500FF30031800303F
:1003B000C600003046020A3003194502031CE12939
:1003C000E3290130E4290030C700C8014708D00004
:1003D0004808D100500851040319EF29F029FD29DC
:1003E00067086807C40044088600013087000108D8
:1003F000D03EC5004508DD00142A67086807C40020
:1004000044088600013087000108C500C601450880
:10041000F7004608F8009E31152680317708C93E5E
:100420002000C7004708DD006208803AC400803021
:100430004402031D1D2A083061020318202A212AC4
:10044000402A20005D08C400C501C601C70161083B
:10045000073CC8000130C835FF3E031D2B2A483534
:10046000890A362AC435C50DC60DC70D890B322A37
:100470004408E3044508E4044608E5044708E604A4
:1004800001302000E1070030E23DD2285E1A492AFF
:100490004A2A7F2967086807C4004408860001309B
:1004A0008700703001060319562A572A6D2A6708FB
:1004B0006807C400440886000130870050300106F8
:1004C0000319632A642A6D2A0030C3000030C20079
:1004D0000030C1000030C000E52E0130C4004408E7
:1004E000E70767086807C4004408860001308700F2
:1004F0002B300106031D7D2A7E2A832A0130C40089
:100500004408E707922A67086807C4004408860081
:10051000013087002D300106031D8F2A902A922A70
:10052000DE157E2A6708C4004408E807E7019C2A14
:100530000130C4004408E70767086807C40044089E
:10054000860001308700303001060319A82AA92A45
:10055000982AE101E201D72A67080319B02AB12AD3
:10056000C12A0A30F1000030F2006208F40061088C
:10057000F3009D319025803172082000E20071085F
:10058000E10067086807C40044088600013087005E
:100590000108D03EC500FF3003180030C6004508F2
:1005A000E1074608E23D0130C4004408E707670858
:1005B0006807C40044088600013087000108D03E67
:1005C000C500FF3003180030C600003046020A3074
:1005D00003194502031CED2AEF2A0130F02A0030EE
:1005E000C700C8014708D2004808D3005208530486
:1005F000031DFB2AFC2AAC2A6708031D002B012BD4
:100600000A2B0030C3000030C2000030C1000030AF
:10061000C000E52EDE1D0D2B0E2B132BE109E20988
:10062000E10A0319E20A6108DF076208E03D4008B9
:1006300003191B2B1C2B242B68086707C4004008D8
:100640008600870144088100660865046404630429
:10065000031D2B2B2C2B352B0030C3000030C20088
:100660000030C1000030C000E52EFF306305C4003B
:1006700000306405C50000306505C6000030660521
:10068000C7004708031D502B4608031D502B450883
:10069000031D502B81304402031C4F2B502B652B24
:1006A00000302000E3070130E43D0030E53D00303C
:1006B000E63D652B0130E335E40DE50DE60D890BD4
:1006C0005B2BFF30DF07FF30E03D2000E61F692B8A
:1006D0006A2B5A2B6008803AC4007F304402031D05
:1006E000732B83305F020318762B772B842B81309A
:1006F0002000DF00FF30E0000030E6000030E500C1
:100700000030E4000030E300813020005F06031D6C
:100710008E2B600A03198D2B8E2B992B0130E3351C
:10072000E40DE50DE60D890B8F2BFF30DF07FF3061
:10073000E03D6008803AC40080304402031DA22BD3
:1007400080305F02031CA52BA62BB32B00302000AA
:10075000E6000030E5000030E4000030E3008030C7
:10076000DF000030E00009302000E636E50CE40C44
:10077000E30C890BB42BFF30E305FF30E4057F3039
:10078000E5050030E6055F087F3EC4000030603DAF
:10079000C500FF304405C60000304505C7004608C7
:1007A000C8004708C900CA01CB011730C835C90DB8
:1007B000CA0DCB0D890BD62B4808E3044908E40485
:1007C0004A08E5044B08E604C42E5E1AE82BE92B20
:1007D000F92B68088600013087002E300106031DC2
:1007E000F22BF32BF92B5E160130C4004408E80706
:1007F000E52B68088600013087000108D03EC40060
:10080000FF3003180030C500003045020A300319DC
:100810004402031C0C2C0E2C01300F2C0030C6009F
:10082000C7014608D4004708D50054085504031DE5
:100830001A2C1B2C1C2C682CDE1409306106620457
:100840000319232C242C5F2C5E1E272C282C2C2CE7
:10085000FF30DF07FF30E03D0130E1070030E23DCF
:100860000030F4000030F3000030F2000A30F100F4
:100870006608F8006508F7006408F6006308F500EC
:100880009F314A27803174082000E6007308E50094
:100890007208E4007108E3006808860001308700F0
:1008A0000108D03EC400C501C601C7014408E307E2
:1008B0004508E43D4608E53D4708E63DF42B5E1A51
:1008C000622C632CF42B0130DF070030E03DF42B69
:1008D000E101E20168088600013087006530010609
:1008E0000319732C742C7E2C680886000130870055
:1008F00045300106031D7D2C7E2C5E2D0130C40089
:100900004408E80768088600013087002D3001069A
:10091000031D8B2C8C2C922CDE150130C400440856
:10092000E8079D2C68088600013087002B300106FF
:10093000031D9B2C9C2C9D2C8D2C6808860001305F
:100940008700303001060319A62CA72C8D2C6808CF
:100950008600013087000108D03EC400FF30031834
:100960000030C500003045020A3003194402031C60
:10097000BA2CBC2C0130BD2C0030C600C701460883
:10098000D6004708D700560857040319C82CC92CAD
:10099000552D68088600013087000108D03EC4004C
:1009A000C5014408E1004508E2000130C4004408E4
:1009B000E80768088600013087000108D03EC400BF
:1009C000FF3003180030C500003045020A3003191B
:1009D0004402031CEC2CEE2C0130EF2C0030C6003E
:1009E000C7014608D8004708D90058085904031918
:1009F000FA2CFB2C552D6808860001308700010871
:100A0000D03EC400C5016208F2006108F1000A305E
:100A1000F3000030F4009D3190258031200044081F
:100A20007107E1004508723DE2000130C40044084E
:100A3000E80768088600013087000108D03EC4003E
:100A4000FF3003180030C500003045020A3003199A
:100A50004402031C2C2D2E2D01302F2D0030C600FA
:100A6000C7014608DA004708DB005A085B0403198F
:100A70003A2D3B2D552D680886000130870001086E
:100A8000D03EC400C5016208F2006108F1000A30DE
:100A9000F3000030F4009D3190258031200044089F
:100AA0007107E1004508723DE200DE1D582D592D09
:100AB0005E2DE109E209E10A0319E20A6108DF0794
:100AC0006208E03D40080319662D672D722DDE1C7B
:100AD0006A2D6B2D722D6808C400400886008701BE
:100AE000440881006608F4006508F3006408F20019
:100AF0006308F100003092316F22803174082000C9
:100B0000E6007308E5007208E4007108E300660877
:100B1000F4006508F3006408F2006308F100003097
:100B2000F8000030F7000030F6000030F50090319A
:100B30002A208031031C9D2D9E2DA82D00302000E1
:100B4000C3000030C2000030C1000030C000E52EFC
:100B50002000E01FAC2DAD2D372EDF09E009DF0AA4
:100B60000319E00AD42D5030F4001530F3000230A0
:100B7000F200F930F10020006608F8006508F7007F
:100B80006408F6006308F5008931BD2180317408DE
:100B90002000E6007308E5007208E4007108E30035
:100BA000F630DF07FF30E03D6008803AC400803057
:100BB0004402031DDD2D0A305F020318E02DE12DF4
:100BC000B32D022E4130F4002030F3000030F2004B
:100BD0000030F1006608F8006508F7006408F600C8
:100BE0006308F5008931BD21803174082000E600DA
:100BF0007308E5007208E4007108E300FF30DF07C6
:100C0000FF30E03D20005F086004031D082E092E20
:100C1000E22D6608F4006508F3006408F20063083A
:100C2000F1000030F8008030F7000030F6000030AE
:100C3000F50091314721803103181F2E202EC42E3C
:100C400020005E1C242E252E2E2E8030C3008030E6
:100C5000C2000030C1000030C000E52E0030C300EB
:100C60008030C2000030C1000030C000E52E6008B6
:100C7000803AC40080304402031D402E01305F02E0
:100C8000031C432E442EC42E652E5030A90015306F
:100C9000A8000230A700F930A6006608AD0065087C
:100CA000AC006408AB006308AA008D31A92580312F
:100CB00020002908E6002808E5002708E4002608A7
:100CC000E300F630DF07FF30E03D00302000600237
:100CD0000A3003195F0203186E2E6F2E452E902ED8
:100CE0004130A9002030A8000030A7000030A60045
:100CF0006608AD006508AC006408AB006308AA0094
:100D00008D31A925803120002908E6002808E5005A
:100D10002708E4002608E300FF30DF07FF30E03D4E
:100D20005F086004031D952E962E702E7F30F40010
:100D30007F30F300FF30F200FF30F1006608F8006A
:100D40006508F7006408F6006308F5009131472153
:100D500080310318AC2EAD2EC42E20005E1CB12EA7
:100D6000B22EBB2E8030C3008030C2000030C100E4
:100D70000030C000E52E0030C3008030C2000030DB
:100D8000C1000030C000E52E20005E1CC82EC92E18
:100D9000DD2E6608F4006508F3006408F2006308BD
:100DA000F1009C314024803174082000E600730873
:100DB000E5007208E4007108E3006608C3006508F6
:100DC000C2006408C1006308C000080021003D089B
:100DD000803AE80080306802031DF02E0B303C02A0
:100DE000031CF32EF42E172F9B31BD23863172087E
:100DF0002100C3007108C2001E302000E7009830B7
:100E0000E800210043082000EA00210042082000F9
:100E1000E9009C31A024863121302000E700983081
:100E2000E8009C31A02486312100BC01BD010130C5
:100E30002100BC070030BD3D9C310F248631003AB3
:100E40000319232F242FF02F2100BE01BF010230F0
:100E50002100E9003830E800AD30890B2D2FE80B78
:100E60002D2FE90B2D2F442F9E318D268631210009
:100E7000E8003E08203E86000130870068088100B7
:100E80000130BE070030BF3D9C310F248631003A4F
:100E9000031D4B2F4C2F342F21003E08203E86008F
:100EA000013087008101220020082100E800680845
:100EB000D8005808E800E9016808F7006908F80058
:100EC0009E311526863177082100EA006A08D8008D
:100ED000EB01EC0121006B08213E86000130870008
:100EE0000108E8006B08583E86000130870068085A
:100EF00081000130EB070030EC3D6C08803AE800DF
:100F000080306802031D862F08306B02031C892F76
:100F10008A2F6A2FDC2F583093311C2386317808B2
:100F20002100C1007708C0004108F2004008F1002C
:100F30009B31C3238631F02F58309C318F2486316A
:100F400020006C082100AB0020006B082100AA00E3
:100F500020006A082100A900200069082100A800DB
:100F60002B08F4002A08F3002908F2002808F100F1
:100F70009C3122248631F02F58309C318F248631C9
:100F800020006C082100AF0020006B082100AE009B
:100F900020006A082100AD00200069082100AC0093
:100FA0002F08F4002E08F3002D08F2002C08F100A1
:100FB0009C3118248631F02F21005808E800E901FF
:100FC0006908003A0319E52FF02F6808493A031918
:100FD000BC2F193A03199C2F033A03198B2FF02FBA
:100FE0000800200011132100560857040319F92F97
:100FF000FA2FFF2F57088A0056080A008731080089
:1010000016302100970008007C08A03E860087016A
:10101000810123001D1D0D280E2819287C08A03EE3
:1010200086008701811421004F088A004E080A00BB
:10103000883123009D1C1D281E2829287C08A03EDD
:1010400086008701011521004D088A004C080A001E
:1010500088317C08A03E86008701010803193128E9
:101060003228392821004B088A004A080A008831B2
:101070003C289D313E25883108002000E8004008CA
:1010800003194328442850286808C40040088600F3
:1010900087014408810050280130C4004408E80753
:1010A000DC01DC0A68088600013087002030010678
:1010B00003195B285D2801305E280030C400C5019B
:1010C0004408E1004508E20061086204031D692844
:1010D0006A28852868088600013087000108C40056
:1010E000C5014408E1004508E2006108F73EC6007A
:1010F000FF30623DC7000030470205300319460249
:10110000031C832884288528DC015C08C400C501F1
:101110004408CC004508CD004C084D04031D91281F
:1011200092284C28DE012D3061066204031D9928A7
:101130009A28A128DE01DE0A0130C4004408E8072D
:10114000A9282B3061066204031DA728A828A92816
:101150009C28E701AF280130C4004408E70767086E
:101160006807C4004408860001308700010803199D
:10117000BA28BB28E7286708093E8400983003187E
:10118000013E85000008C40067086807C5004508DF
:10119000860001308700010844060319D028D128B1
:1011A000AB286708003E840098300318013E850094
:1011B0000008C40067086807C500450886000130BC
:1011C0008700010844060319E628E728AB28033006
:1011D0006702031CEC28ED280E297F30E6008030E2
:1011E000E5000030E4000030E30040080319F9286E
:1011F000FB288631C42E083067060319002901290F
:1012000005290330C4004408E70068086707C400E4
:1012100040088600870144088100F928E701142965
:101220000130C4004408E70767086807C4004408A1
:10123000860001308700010803191F2920294C2945
:1012400067081A3E840098300318013E85000008A4
:10125000C40067086807C50045088600013087009C
:101260000108440603193529362910296708123E5A
:10127000840098300318013E85000008C400670808
:101280006807C5004508860001308700010844064C
:1012900003194B294C29102903306706031D5129D6
:1012A0005229AE292230F1009830F2009C317E2480
:1012B000883174082000E6007308E5007208E40035
:1012C0007108E3004008031966296729F9286708AF
:1012D000C4004408E8076808860001308700283009
:1012E0000106031D74297529A629E7017B29013010
:1012F000C4004408E70767086807C400440886007C
:101300000130870001080319862987299429670875
:101310006807C400440886000130870029300106B0
:10132000031D93299429772967086807C400440896
:1013300086000130870029300106031DA029A1295C
:10134000A6296708013EC4004408E8076808C400ED
:1013500040088600870144088100F928E101E20184
:101360000030E6000030E5000030E4000030E3002B
:10137000DF01E001E701803164287808803920002E
:10138000A0002008A9007835A0002008B000F71FB1
:10139000CA29CB29CC29301430080319D029D129E6
:1013A000E129300A031DD529D629DE290030F800AD
:1013B0000030F7000030F6000030F500F717F801B4
:1013C000E9290030F8000030F7000030F600003066
:1013D000F50074088039A0002008A9067435A00023
:1013E0002008B100F31FF529F629F7293114310837
:1013F0000319FB29FC290C2A310A031D002A012AA2
:10140000092A0030F4000030F3000030F200003010
:10141000F100F317F401142A0030F4000030F30057
:101420000030F2000030F10074087304720471049B
:10143000031D1B2A1C2A352A0030F8000030F70053
:101440000030F6000030F5008030F7047F30F804FB
:101450002908A0002008F8047808F4007708F300B1
:101460007608F2007508F100702B3008031D392A48
:101470003A2A432A0030F4000030F3000030F20032
:101480000030F100702B3008A000A1012108A3005A
:1014900031082002A200031CA30322087F3EAA00F9
:1014A0000030233DAB007808A8007708A700760835
:1014B000A6007508A5000030F8000030F7000030E5
:1014C000F6000030F5000030AF000030AE00003014
:1014D000AD000030AC00B101AB2A31080319712A0C
:1014E000722A8C2A0130A535A60DA70DA80D890BEF
:1014F000732A0130F535F60DF70DF80D890B7A2AB0
:10150000AF1F832A842A852A75140130AC35AD0DAE
:10151000AE0DAF0D890B862A74082802031D9A2A86
:1015200073082702031D9A2A72082602031D9A2AAD
:1015300071082502031C9D2A9E2AA72A2F177108CD
:10154000A5027208A63B7308A73B7408A83B0130AC
:10155000A0002008B1071A303102031CB02AB12ABA
:101560006D2A28082704260425040319B82AB92A55
:10157000D22A2C14D22A0130F535F60DF70DF80DCC
:10158000890BBC2AAF1FC52AC62AC72A7514013089
:10159000AC35AD0DAE0DAF0D890BC82AFF30AA07D3
:1015A000FF30AB3DF71FD52AD62ABB2AB101AF1FAA
:1015B000DA2ADB2AF72AFF302C05A000FF302D05A0
:1015C000A100FF302E05A2007F302F05A3002308C5
:1015D0002204210420040319EE2AEF2AF22AB10181
:1015E000B10AF72A751CF52AF62AF72AEF2A3108DC
:1015F0000319FB2AFC2A242B0130F5070030F63DA5
:101600000030F73D0030F83D781C072B082B242BC9
:101610007508A0007608A1007708A2007808A3004A
:101620000130A400A337A20CA10CA00CA40B122B18
:101630002308F8002208F7002108F6002008F5002A
:101640000130AA070030AB3D2B08803AA000803063
:101650002002031D2D2BFF302A02031C302B312BBF
:101660003E2BFF302000AA000030AB000030F80015
:101670000030F7000030F6000030F50020002B08A5
:10168000803AA00080302002031D482B01302A023E
:1016900003184B2B4C2B582B2000AA01AB01003018
:1016A000F8000030F7000030F6000030F500A90126
:1016B00020002A08A0002008B000301C602B612BFD
:1016C000632BF717672B7F30A0002008F705303613
:1016D000A0002008F8002908A0002008F8042C2AFF
:1016E0000800200043088039C8004808D00043356E
:1016F000C8004808D200C21F7E2B7F2B802B5214BB
:1017000052080319842B852B952B520A031D892B14
:101710008A2B922B0030C3000030C2000030C10081
:101720000030C000C217C3019D2B0030C300003041
:10173000C2000030C1000030C00047088039C80036
:101740004808D100510850060319A72BA82BA92B34
:1017500050174735C8004808D100C61FB02BB12B21
:10176000B22B511451080319B62BB72BC72B510AB2
:10177000031DBB2BBC2BC42B0030C7000030C600A0
:101780000030C5000030C400C617C701CF2B0030A1
:10179000C7000030C6000030C5000030C400520849
:1017A00051020318D42BD52B192C501FD82BD92B11
:1017B000DD2B8030C8004808D0065208C800480811
:1017C000D3005108C8004808D2005308C800480890
:1017D000D1004008C8004808D3004408C8004808A1
:1017E000C0005308C8004808C4004108C8004808A1
:1017F000D3004508C8004808C1005308C80048087D
:10180000C5004208C8004808D3004608C800480878
:10181000C2005308C8004808C6004308C80048086A
:10182000D3004708C8004808C3005308C800480848
:10183000C700D3015108C800C9014908CB005208AC
:101840004802CA00031CCB034B08803ACC0080300E
:101850004C02031D2D2C1A304A02031C302C312C53
:10186000692C20004308420441044004031D392C24
:101870003B2C01303C2C0030C8004808D30000301D
:10188000C3000030C2000030C1000030C000510869
:10189000C8004808D200702C531C4F2C502C562CDA
:1018A00053360138C8004808D300582C0310D30C15
:1018B000401C5B2C5C2C5D2CD3170130C800C33757
:1018C000C20CC10CC00CC80B5F2C0130C80048080A
:1018D000D207200051085202031C6F2C702C4C2C94
:1018E000501B732C742CAC2C5208031D782C792CB3
:1018F000822C0030C3000030C2000030C100003034
:10190000C000A82D4408C0074508C13D4608C23D97
:101910004708C33D431C8D2C8E2C382D531C912C15
:10192000922C982C53360138C8004808D3009A2CC2
:101930000310D30C401C9D2C9E2C9F2CD3170130E0
:10194000C800C337C20CC10CC00CC80BA12C01309D
:10195000C8004808D207382D4308803AC800470815
:10196000803A4802031DBE2C46084202031DBE2CCD
:1019700045084102031DBE2C440840020318C12C37
:10198000C22CFA2CFF30C800FF30C900FF30CA005B
:10199000FF30CB0040084402CC004108453BCD005D
:1019A0004208463BCE004308473BCF004C08C807DF
:1019B0004D08C93D4E08CA3D4F08CB3D4B08C300FA
:1019C0004A08C2004908C1004808C0008030C80069
:1019D0004808D006D309D30A5308031DF02CF12C74
:1019E000022D0130C0070030C13D0030C23D003043
:1019F000C33D022D4408C0024508C13B4608C23B16
:101A00004708C33B4308420441044004031D092D19
:101A10000A2D342D5308031D0E2D0F2D342D0030AB
:101A2000C3000030C2000030C1000030C000A82D4B
:101A30000130C035C10DC20DC30D890B192DD31F47
:101A4000222D232D242D4014531C272D282D2B2DE2
:101A50000314D30D2D2D0310D30D52080319312D6E
:101A6000322D342D0130D202C21F372D382D182DC2
:101A7000D101D31F3C2D3D2D4B2D53087F39031928
:101A8000422D432D462DD101D10A4B2D401C492D0D
:101A90004A2D4B2D432D510803194F2D502D7D2DCF
:101AA0000130C0070030C13D0030C23D0030C33DB1
:101AB000431C5B2D5C2D7D2D4008C8004108C900EA
:101AC0004208CA004308CB000130CC00CB37CA0C17
:101AD000C90CC80CCC0B662D4B08C3004A08C200C9
:101AE0004908C1004808C000520A0319782D792D11
:101AF0007D2D0130C8004808D207520A0319812DF4
:101B0000822D872D5208031D862D872D952D00309F
:101B1000C3000030C2000030C1000030C0005208D5
:101B2000031D932D942D952DD001521C982D992D88
:101B30009B2DC2179F2D7F30C8004808C205523622
:101B4000C8004808C300D01FA62DA72DA82DC31775
:101B50000800200029088039AE002E08B30029357E
:101B6000AE002E08B900A81FB62DB72DB82D391418
:101B700039080319BC2DBD2DCC2D390A031DC12DEB
:101B8000C22DCA2D0030A9000030A8000030A700E7
:101B90000030A600A817D42D0030A9000030A800FE
:101BA0000030A7000030A6002D088039AE002E08B6
:101BB000B3062D35AE002E08B400AC1FE02DE12D8C
:101BC000E22D341434080319E62DE72DF62D340ADE
:101BD000031DEB2DEC2DF42D0030AD000030AC00DA
:101BE0000030AB000030AA00AC17FE2D0030AD0075
:101BF0000030AC000030AB000030AA0034080319FC
:101C0000022E032E082E3908031D072E082E112E32
:101C10000030A9000030A8000030A7000030A60066
:101C2000FF2F2608AE002E08F1002C089D31F2256A
:101C30008D3172082000BF007108BE003E08AE0062
:101C4000AF01B001B1013108B8003008B7002F086A
:101C5000B6002E08B5003F08AE00AF01B001B101DB
:101C60003108BD003008BC002F08BB002E08BA00A8
:101C70002708AE002E08F1002B089D31F2258D318A
:101C800072082000BF007108BE003E08AE00AF0120
:101C9000B001B1012E08B5072F08B63D3008B73D99
:101CA0003108B83D3F08AE00AF01B001B1012E08C8
:101CB000BA072F08BB3D3008BC3D3108BD3D2808A0
:101CC000AE002E08F1002A089D31F2258D317208F0
:101CD0002000BF007108BE003E08AE00AF01B00199
:101CE000B1012E08B5072F08B63D3008B73D3108C1
:101CF000B83D3F08AE00AF01B001B1012E08BA07F0
:101D00002F08BB3D3008BC3D3108BD3D0830B5351E
:101D1000B60DB70DB80D890B872E2708AE002E081B
:101D2000F1002A089D31F2258D3172082000BF0094
:101D30007108BE003E08B5073F08B63D0030B73D0C
:101D4000B83D2608AE002E08F1002B089D31F22583
:101D50008D3172082000BF007108BE003E08B50733
:101D60003F08B63D0030B73DB83D0830B535B60D3B
:101D7000B70DB80D890BB62E2608AE002E08F1005F
:101D80002A089D31F2258D3172082000BF007108AC
:101D9000BE003E08B5073F08B63D0030B73DB83D30
:101DA0002708AE002E08F1002C089D31F2258D3158
:101DB00072082000BF007108BE003E08BA073F0845
:101DC000BB3D0030BC3DBD3D2808AE002E08F100F3
:101DD0002B089D31F2258D3172082000BF0071085B
:101DE000BE003E08BA073F08BB3D0030BC3DBD3DCC
:101DF0002808AE002E08F1002C089D31F2258D3107
:101E000072082000BF007108BE003E08AE003F0807
:101E1000AF00B001B1010830AE35AF0DB00DB10D5E
:101E2000890B0C2F2E08BA072F08BB3D3008BC3D8C
:101E30003108BD3D3508AE003608AF003708B000A8
:101E40003808B1001830B136B00CAF0CAE0C890BAD
:101E5000232F2E08BA072F08BB3D3008BC3D3108A0
:101E6000BD3D0830B535B60DB70DB80D890B322F15
:101E700039083407AE00AF01AF0D2E08823EBE0018
:101E8000FF302F3DBF005B2F0130BA35BB0DBC0DBD
:101E9000BD0D890B452FB81F4E2F4F2F502F3A14D1
:101EA0000130B535B60DB70DB80D890B512FFF3088
:101EB000BE07FF30BF3DBC1F5E2F5F2F442FB40114
:101EC000B81F632F642F802FFF303505AE00FF3021
:101ED0003605AF00FF303705B0007F303805B10060
:101EE000310830042F042E040319772F782F7B2F0D
:101EF000B401B40A802F3A1C7E2F7F2F802F782FB9
:101F000034080319842F852FAD2F0130BA07003014
:101F1000BB3D0030BC3D0030BD3D3D1C902F912F9E
:101F2000AD2F3A08AE003B08AF003C08B0003D08BA
:101F3000B1000130B200B137B00CAF0CAE0CB20B37
:101F40009B2F3108BD003008BC002F08BB002E08B5
:101F5000BA000130BE070030BF3D3F08803AAE00F6
:101F600080302E02031DB62FFF303E02031CB92F16
:101F7000BA2FC42F7F302000BD008030BC0000305D
:101F8000BB000030BA00F32F20003F08803AAE00BB
:101F900080302E02031DCE2F01303E020318D12FB8
:101FA000D22FDD2F00302000BD000030BC000030FB
:101FB000BB000030BA00B301F32F20003E08AE0092
:101FC0002E08B900FF30BA05FF30BB057F30BC05D5
:101FD0000030BD05391CED2FEE2FEF2FBC17393621
:101FE000AE002E08BD003308AE002E08BD043D082B
:101FF000A9003C08A8003B08A7003A08A600080072
:102002009D31742590318B170B1710309D31592556
:10201200903172082100EE007108ED006E08F400A4
:102022006D08F3009C31702490319B31B8239031BC
:10203200003A03191D281E2816289C312C249031A1
:102042009131D22190318631E626903116288031A5
:102052003C28003071052000A00000307205A1006C
:1020620080307305A2007F307405A3002308220488
:1020720021042004031D3E283F2847280030F40095
:102082000030F3000030F2000030F100003075053E
:10209200A00000307605A10080307705A2007F30D5
:1020A2007805A3002308220421042004031D5A28D2
:1020B2005B2863280030F8000030F7000030F6009B
:1020C2000030F50078087406031D7128770873063E
:1020D200031D712876087206031D712875087106A2
:1020E2000319742875287728031078280314080028
:1020F2002000B00021003A1C7F2880288928200077
:102102003008AB002B08A00028089E3164269031CD
:102112002000AA1B8D288E2893282A08AF002908A0
:10212200AE009528AE01AF01AC01AD01A928203067
:10213200F4000030F50020003008AB002B08F60058
:102142009F318027903101302000AC070030AD3D37
:102152002D08803AAB002F08803A2B02031DB328CA
:102162002E082C02031CB628B728982821003A18FA
:10217200BB28BC28C52820003008AB002B08A000D3
:1021820028089E3164269031200028089D3124259C
:10219200903120002E087107A8002F08723DA90077
:1021A200080003102000560D570DD8005808FB00F8
:1021B2007B08031DDD28DE28E7280030D700003029
:1021C200D6000030D5000030D40046295408D8008B
:1021D2005508D9005608DA005708DB001F30DB36F5
:1021E200DA0CD90CD80C890BF0285808DC005C08F2
:1021F200FA00D617FF30D405FF30D505FF30D605DB
:102202000030D7059630FB02FB1F08290929212936
:102212007B08803A973E03180F2910291129DE28DE
:102222000130D736D60CD50CD40C890B12290130CB
:10223200D8005808FB07031D1F2920291129362918
:1022420020307B02031C262927293129DE28013070
:10225200D435D50DD60DD70D890B29290130FB02B6
:102262007B08031D3529362928297A0803193A29BA
:102272003B294629D409D509D609D709D40A031915
:10228200D50A0319D60A0319D70A080000307105C6
:102292002000A00000307205A10080307305A2006A
:1022A2007F307405A3002308220421042004031DA7
:1022B2005B295C2964290030F4000030F30000300F
:1022C200F2000030F10000307505A0000030760504
:1022D200A10080307705A2007F307805A300230893
:1022E200220421042004031D772978298029003043
:1022F200F8000030F7000030F6000030F500F41F5F
:10230200832984299C290030A0000030A1000030DC
:10231200A2008030A3007108A0027208A13B7308DA
:10232200A23B7408A33B2308F4002208F30021080F
:10233200F2002008F100F81F9F29A029B8290030D7
:10234200A0000030A1000030A2008030A300750878
:10235200A0027608A13B7708A23B7808A33B23089A
:10236200F8002208F7002108F6002008F500803066
:10237200F4068030F80678087402031DCA2977082B
:102382007302031DCA2976087202031DCA29750841
:1023920071020318CD29CE29D0290310D1290314A3
:1023A20008002000DD01DE019B31AD23913172086E
:1023B2002100C9007108C80048086602C600490821
:1023C200673BC70046082000DD07210047082000C0
:1023D200DE3D21004608F1004708F200890D893BE5
:1023E2008909F300F400013092316F2291317408AF
:1023F2002000AD007308AC007208AB007108AA009F
:10240200210061082000A900210060082000A80026
:1024120021005F082000A70021005E082000A6001E
:102422008D31A925913120002908C7002808C6004E
:102432002708C5002608C4005D08F1005E08F20006
:10244200890D893B8909F300F400013092316F2232
:10245200913174082000AD007308AC007208AB0023
:102462007108AA00210065082000A9002100640863
:102472002000A800210063082000A70021006208B4
:102482002000A6008D31A925913120002908C30022
:102492002808C2002708C1002608C0008B3171231A
:1024A200913120004308D7004208D6004108D500E8
:1024B2004008D4009031D2209131200055082100EB
:1024C200C500200054082100C4004508F200440859
:1024D200F1009C31C4249131D52908002000A000CC
:1024E20020080319752A762A8A2AF41F792A7A2A59
:1024F2008A2A7109A2007209A3007309A40074094F
:10250200A500A20A0319A30A0319A40A0319A50A1A
:10251200922A7408A5007308A4007208A300710827
:10252200A2007408730472047104031D992A9A2A82
:10253200A32A0030F4000030F3000030F200003033
:10254200F1001B2B9630F5007508A100B32A01306B
:10255200F5007508A1070130A536A40CA30CA20C46
:10256200890BAD2AFE302505031DB82AB92AA82AEF
:10257200CD2A0130F5007508A1070130A20700300D
:10258200A33D0030A43D0030A53D0130A536A40C8A
:10259200A30CA20C890BC72AFF302505031DD22AE2
:1025A200D32ABA2ADD2A0130A1020130A235A30DB5
:1025B200A40DA50D890BD72AA41BE02AE12AE72A3C
:1025C200023021020318E62AE72AD42A2118EA2A2D
:1025D200EB2AF32AFF30A205FF30A3057F30A405C2
:1025E200FF30A5050310A10C2108F500F601F70143
:1025F200F8011830F535F60DF70DF80D890BFB2AA9
:102602007508A2047608A3047708A4047808A50430
:10261200200803190D2B0E2B132BF41F112B122B39
:10262200132BA5172508F4002408F3002308F20051
:102632002208F10008002000AD00AB01AC01A401AA
:10264200A501272B0130A0002008AD07AA01AA0A84
:102652002D08860001308700203001060319322B35
:10266200332B482B2D088600013087000108F73EE6
:10267200A000FF3003180030A10000302102053015
:1026820003192002031C462B472B482BAA012A08B8
:10269200A000A1012008A6002108A70026082704FF
:1026A200031D542B552B232B5F2B0130A40000302C
:1026B200A5000130A0002008AD07912B2D0886004F
:1026C200013087000108A000A1012108003A031986
:1026D2006B2B912B20082B3A03195A2B063A03191C
:1026E200562B912B2D088600013087002C08F20012
:1026F2002B08F1000A30F3000030F4009D319025E0
:10270200933172082000A10001087102A000031C8D
:10271200A1032008303EAB000030213DAC005A2B13
:102722002D088600013087000108D03EA000FF304E
:1027320003180030A100003021020A3003192002E0
:10274200031CA42BA62B0130A72B0030A200A3014F
:102752002208A8002308A90028082904031DB22B77
:10276200B32B732B24082504031DB82BB92BC52BBF
:102772002B09A0002C09A100A00A0319A10A200814
:10278200F7002108F800C92B2C08F8002B08F700E5
:1027920008002000DE004F0886008701403FD1007C
:1027A200413FD20051088400520885001200253AA8
:1027B200031DDC2BDD2B812C4F08860087010130A5
:1027C200810741310318810A2100B601B701BA011C
:1027D200BB01FF30B800FF30B90020004F0886006F
:1027E2008701403FD100413FD20051088400520886
:1027F20085001200643A0319FF2B002C112C4F089C
:1028020086008701403FD100413FD2005108840039
:10281200520885001200693A031D102C112C4C2C11
:102822004F08860087010130810741310318810A70
:102832005008860087010108840085010230810763
:10284200003FD100013FD2005108D6005208D70004
:10285200890D893B8909D800D900DA00DB00DC0048
:10286200DD005608B1005708B2005808B3005908F5
:10287200B4005A08B5005B08B6005C08B7005D08F2
:10288200B8005E0896319026933120003208D000BD
:102892003108CF00A42C4F0886008701403FD100A9
:1028A200413FD20051088400520885001200253AA7
:1028B200031D5C2C5D2C762C4F08860087010130AD
:1028C200810741310318810A2530F4000030F500F8
:1028D2005E08D1005108F6009F3180279331013004
:1028E2002000CF000030D000A42C4F0886008701C2
:1028F2000130810741310318810ACF01D001A42C94
:102902004F0886008701403FD100413FD200510865
:102912008400520885000008D300D4015308F40053
:102922005408F5005E08D5005508F6009F3180274F
:10293200933120004F088600870101308107413121
:102942000318810A702C0800F30128308600003039
:102952008700473FF100F11FAF2CB02CD12C200093
:10296200A809A909AA09AB09AC09AD09AE09AF09C1
:10297200A80A031DCF2CA90A031DCF2CAA0A031DE6
:10298200CF2CAB0A031DCF2CAC0A031DCF2CAD0AF2
:10299200031DCF2CAE0A031DCF2CAF0AF301F30A9D
:1029A2002030860000308700473FF100F11FDA2C0B
:1029B200DB2CFA2C2000A009A109A209A309A40971
:1029C200A509A609A709A00A031DFA2CA10A031D3D
:1029D200FA2CA20A031DFA2CA30A031DFA2CA40A3C
:1029E200031DFA2CA50A031DFA2CA60A031DFA2CB4
:1029F200A70A200020082104220423042404250419
:102A0200260427040319062D072D5A2DF201F20A76
:102A1200162DA035A10DA20DA30DA40DA50DA60D79
:102A2200A70D0130F1007108F207A71F192D1A2D09
:102A32000A2D27082F02031D382D26082E02031DFA
:102A4200382D25082D02031D382D24082C02031DC4
:102A5200382D23082B02031D382D22082A02031DBC
:102A6200382D21082902031D382D20082802031CB5
:102A72003B2D3C2D4C2D2008A8022108A93B220801
:102A8200AA3B2308AB3B2408AC3B2508AD3B2608F8
:102A9200AE3B2708AF3BA736A60CA50CA40CA30C93
:102AA200A20CA10CA00C0130F202031D592D5A2DCB
:102AB2001A2D730803195E2D5F2D7D2DA809A90912
:102AC200AA09AB09AC09AD09AE09AF09A80A031DF1
:102AD2007D2DA90A031D7D2DAA0A031D7D2DAB0A9A
:102AE200031D7D2DAC0A031D7D2DAD0A031D7D2D19
:102AF200AE0A031D7D2DAF0A20002808A000290878
:102B0200A1002A08A2002B08A3002C08A4002D086B
:102B1200A5002E08A6002F08A7000800F301203008
:102B2200860000308700473FF100F11F992D9A2D52
:102B3200BB2D2000A009A109A209A309A409A50986
:102B4200A609A709A00A031DB92DA10A031DB92DC3
:102B5200A20A031DB92DA30A031DB92DA40A031D40
:102B6200B92DA50A031DB92DA60A031DB92DA70A61
:102B7200F301F30A2830860000308700473FF10056
:102B8200F11FC42DC52DE82D2000A809A909AA0905
:102B9200AB09AC09AD09AE09AF09A80A031DE42DC2
:102BA200A90A031DE42DAA0A031DE42DAB0A031D85
:102BB200E42DAC0A031DE42DAD0A031DE42DAE0A7B
:102BC200031DE42DAF0A0130F1007108F3067430E1
:102BD2008600003087000830F10000301E00F10B43
:102BE200EF2D2000200821042204230424042504BC
:102BF200260427040319FE2DFF2D5B2EF201F20A93
:102C02000E2EA035A10DA20DA30DA40DA50DA60D8E
:102C1200A70D0130F1007108F207A71F112E122E25
:102C2200022EF435F50DF60DF70DF80DF90DFA0D2E
:102C3200FB0D27082F02031D382E26082E02031D26
:102C4200382E25082D02031D382E24082C02031DC0
:102C5200382E23082B02031D382E22082A02031DB8
:102C6200382E21082902031D382E20082802031CB1
:102C72003B2E3C2E4D2E2008A8022108A93B2208FB
:102C8200AA3B2308AB3B2408AC3B2508AD3B2608F6
:102C9200AE3B2708AF3B7414A736A60CA50CA40CB8
:102CA200A30CA20CA10CA00C0130F202031D5A2E9F
:102CB2005B2E122E730803195F2E602E7E2EF409EE
:102CC200F509F609F709F809F909FA09FB09F40AFD
:102CD200031D7E2EF50A031D7E2EF60A031D7E2E8F
:102CE200F70A031D7E2EF80A031D7E2EF90A031D24
:102CF2007E2EFA0A031D7E2EFB0A74082000A00015
:102D02007508A1007608A2007708A3007808A4003D
:102D12007908A5007A08A6007B08A7000800200011
:102D2200BE003108C5003208C6003308C7003408A7
:102D3200C8003508C9003608CA003708CB00380871
:102D4200CC004530860000308700473FB900B91BF0
:102D5200AB2EAD2E0130AE2E00302000BA00BB01EA
:102D62003A08C3003B08C400430844040319BA2EBE
:102D7200BB2ED92EC509C609C709C809C909CA097E
:102D8200CB09CC09C50A031DD92EC60A031DD92EAB
:102D9200C70A031DD92EC80A031DD92EC90A031D4D
:102DA200D92ECA0A031DD92ECB0A031DD92ECC0A4D
:102DB2002100B91BDD2EDE2EE22EFD30BA05FF30DA
:102DC200BB053908803A2000B90080303902031D62
:102DD200ED2E0130210038020318F02EF12EF72ECD
:102DE20001302000BF000030C000FF2E2100390852
:102DF2002000C000210038082000BF002100370851
:102E02002000C200210036082000C100430844040B
:102E1200031D0C2F0D2F122F21003A1D112F122FDF
:102E2200172FFF302000C107FF30C23D1F302000A6
:102E3200CD000030CE002200D701882FFF302000C5
:102E4200CD07FF30CE3D0A30A000A101A201A301AF
:102E5200A401A501A601A7014508A8004608A900EA
:102E62004708AA004808AB004908AC004A08AD0070
:102E72004B08AE004C08AF009431A52496312000D7
:102E82002108F5002008F4009D310A2596317408C6
:102E9200303E2000B9004D08383E860001308700E0
:102EA20039088100FF30BF07FF30C03DFF30C10746
:102EB200FF30C23D0A30A000A101A201A301A4017A
:102EC200A501A601A7014508A8004608A9004708D0
:102ED200AA004808AB004908AC004A08AD004B08FC
:102EE200AE004C08AF0095318F25963120002008A6
:102EF200C5002108C6002208C7002308C80024080C
:102F0200C9002508CA002608CB002708CC002000EB
:102F12004E08803AB90080303902031D922F0130E9
:102F22004D02031C952F962FC32F200045084604FF
:102F32004704480449044A044B044C04031DA22FCD
:102F4200A32F1F2F4008803AB90080303902031D99
:102F5200AC2F01303F020318AF2FB02F1F2F2000DC
:102F62004208803AB90080303902031DBA2F01307D
:102F72004102031CBD2FBE2FC32F2100BA18C22F3E
:102F8200C32F1F2F200043084404031DC92FCA2F3B
:102F9200CF2F21003A1DCE2FCF2FEC2FFF30200054
:102FA200CD07FF30CE3D43084404031DD92FDA2F4D
:102FB200DF2F2B30BC000030BD00E32F2D30BC00D2
:102FC2000030BD003C08B9004D08383E8600013093
:102FD20087003908810020004D08383EB9003908C1
:102FE200A8004208AA004108A9003E0890317920B1
:102FF200963120002908B2002808B100080049349F
:103002004E34463449344E344934543459340034FD
:1030120069346E34663469346E34693474347934A4
:1030220000344E3441344E34003469346E346634E4
:1030320000346E3461346E34003425346434003428
:043042003E340034E4
:10374E0021009D14080020001F150800F101F20150
:10375E0008009D313E259B31080023001D121D16C9
:10376E0008002000100E890C0139080021004908BC
:10377E00F2004808F100080072082100E700710805
:10378E00E6000800F30073089E313B269B310800CB
:10379E0072082100D7007108D600080072082100B7
:1037AE00CB007108CA00080072082100CF00710812
:1037BE00CE00080072082100CD007108CC00080070
:1037CE0072082100D1007108D00008007208210093
:1037DE00D3007108D2000800640080010131890B0A
:1037EE00F42B0034FE0012001E00FE0BFA2B0034E8
:1037FE00313020009E009D01911005309F00080081
:10380E0032009101920193019401950196010800F5
:10381E0021005A08031D142C162C0130172C0030D1
:10382E00080074082100E5007308E4007208E30044
:10383E007108E200080074082100E1007308E0003E
:10384E007208DF007108DE00080083302000980047
:10385E0026309600950190128030970008000034B3
:10386E00003480343F340A34D734A3343B346434C8
:10387E00003474087304720471040319472C482C25
:10388E004A2C8030F4060800320099019B019D01FC
:10389E0006309F009E011C1C552C562C522C0800E5
:1038AE0080302C00990018309800C03097001F0807
:1038BE00FC3901389F000800F2007208F100F10D8A
:1038CE00F10D21001D087106033971069D001D14AE
:1038DE00080012309C3163249C319B31A7239C310C
:1038EE009B31FF239C319B31AA239C3108007F30F2
:1038FE00F800FF30F700FF30F600FF30F5007808D3
:10390E00F4007708F3007608F2007508F10008005D
:10391E00FB002000C0017B0888313D209C31200037
:10392E004308EC004208EB004108EA004008E900B9
:10393E00080069302000EB006B08EE006808E0001C
:10394E006708DF006E30EB006B08E10000309E313F
:10395E00E8269C310800203021009E0005309F0093
:10396E009B019C0101309D0011170230F1000030C7
:10397E00F2009B31CF239C3108007208F4007108CD
:10398E00F300F436F30CF436F30C73082C009800A5
:10399E0071080339F3000530F335FF3E031DD32CB8
:1039AE007335970008007108D03EF300FF30723D6A
:1039BE00F400003074020A3003197302031CE82C61
:1039CE00EA2C0130EB2C0030F500F6017508F10001
:1039DE007608F200080071089F3EF300FF30723D3A
:1039EE00F400003074021A3003197302031C002D08
:1039FE00022D0130032D0030F500F6017508F1009F
:103A0E007608F20008007508803AF60080307602DB
:103A1E00031D132D013074020318162D172D232D9F
:103A2E007409F6007509F700F60A0319F70A760805
:103A3E00F4007708F500232D0800F5007508F30053
:103A4E007308F4002E2D0130F3007308F507750886
:103A5E008600013087000108031D362D372D2A2DD3
:103A6E0074087502F100F201F11BF2030800230045
:103A7E001908F0007C08283E860001308700700887
:103A8E0081000130F0007008FC0708307C02031C36
:103A9E00512D522D532DFC010130F00070082100E4
:103AAE00DA070800F4007408F300F30DF30D21009B
:103ABE001D087306033973069D001D140D30890B06
:103ACE00662D000021009D149D186E2D6F2D6B2DFF
:103ADE001C08F2001B08F10008009C3107249D31E0
:103AEE009F3119279D319C314B249D318831002007
:103AFE009D319C31B2249D319B31FF239D319C31F0
:103B0E0057249D319C312C249D319F31BF279D31EF
:103B1E000800F501F601711C952D962D9A2D73084E
:103B2E00F5077408F63D0130F335F40D890B9B2D26
:103B3E000130F236F10C890BA02D71087204031DB1
:103B4E00A92DAA2D922D7608F2007508F100080015
:103B5E00F501F50A2030710672040319B72DB82D40
:103B6E00C82D7108F73EF300FF30723DF4000030AF
:103B7E007402053003197302031CC62DC72DC82D00
:103B8E00F5017508F300F4017308F1007408F200F2
:103B9E000800083021005B020318D62DD72DF02D1A
:103BAE005C08303E860001308700010823009A0031
:103BBE000130F00070082100DC0708305C02031CA5
:103BCE00E92DEA2DEB2DDC010130F0007008DB074A
:103BDE00F12D11120800F900F501F6017108F3003C
:103BEE00F4017308F7007408F800791CFF2D002EFD
:103BFE00042E7708F5077808F63D0130F735F80DF5
:103C0E00890B052E0310F90C7908031D0F2E102EAB
:103C1E00FC2D7608F2007508F100080077089F3E2B
:103C2E002000A000FF30783DA100003021021A30A4
:103C3E0003192002031C242E262E0130272E0030BD
:103C4E00A200A3012208F9002308FA0079087A04D9
:103C5E000319322E332E3A2E5F307705F7000030DF
:103C6E007805F8003A2E0800F20021005B080319CF
:103C7E00412E422E3C2E111A452E462E4A2E7208E9
:103C8E0023009A00612E11127208F1005D08303E79
:103C9E00860001308700710881000130F100710843
:103CAE00DD0708305D02031C5D2E5E2E5F2EDD01EA
:103CBE000130DB022100111608002000A700A5012B
:103CCE00A6017C2E2408A100A2012108F4002208DE
:103CDE00F5002008A3002308F6009F3180279E31AF
:103CEE0001302000A5070030A63D25082707A100BA
:103CFE0021088600013087000108A2002208A400D6
:103D0E002408031D8B2E8C2E692E080021005A08C4
:103D1E000319922E932E8D2E20006F08A03E860042
:103D2E0087010108F10071082100D90020006F08F9
:103D3E00283E8600013087000108F1007108F2006C
:103D4E000130F1007108EF0708306F02031CB02E2E
:103D5E00B12EB22EEF01210091120130DA0291162E
:103D6E0072080800F701F70A7108D03EF300FF3021
:103D7E00723DF400003074020A3003197302031C02
:103D8E00C92ECA2EE02E20307104F30000307204CA
:103D9E00F40073089F3EF500FF30743DF6000030CE
:103DAE007602063003197502031CDE2EDF2EE02E7E
:103DBE00F7017708F300F4017308F1007408F200BC
:103DCE0008002000E4006008E6005F08E50021001E
:103DDE00B401B501062F6530E2006208CF0061081C
:103DEE00E3006308D00064089331CA239E3120009B
:103DFE004F082100B407200050082100B53D2000D7
:103E0E0065088400660885001200031D0F2F102F11
:103E1E00F22E210035082000E00021003408200099
:103E2E00DF00080022008C018D018E013730210049
:103E3E008C0030308D007D308E00ED3023008E00F2
:103E4E0050308D0037308C0024008D018C018E0196
:103E5E0025008C018D018E01373026008C00F0304C
:103E6E008D00FF308E003F3027008C00F0308D002B
:103E7E00FF308E000D303C00A40014303D009F003A
:103E8E000230A100080000302000A3000030A20084
:103E9E000030A1000030A000711C562F572F602F4C
:103EAE0075082000A0077608A13D7708A23D780886
:103EBE00A33D0130F535F60DF70DF80D890B612F89
:103ECE000130F436F30CF20CF10C890B682F7408E8
:103EDE00730472047104031D752F762F532F200067
:103EEE002308F4002208F3002108F2002008F10054
:103EFE00080076080319842F852F8A2F7608031D54
:103F0E00892F8A2F8F2F74089B31C9239F31BE2F83
:103F1E007608033E86008701160001040319982FC8
:103F2E00992FB62F7608033E86008701403FF70093
:103F3E00413FF800760A86008701403FF900413F75
:103F4E00FA007A08803AFB007808803A7B02031D5B
:103F5E00B22F770879020318B52FB62FBE2F760A27
:103F6E00860087010130810741310318810A08005C
:103F7E00210091120430F1000830F2009B31E7234A
:103F8E009F3121001112D030F1001D30F2009B3113
:103F9E00ED239F31083023009F0090309D00243088
:103FAE009E0040309B0003309C000330F100003037
:103FBE00F2009B31DB239F31B430F1001B30F20055
:103FCE009B31E1239F31B030F1001B30F2009B3169
:103FDE00D5239F312100D901DD01DC010830F3002A
:103FEE007308DB00FC012000EF012100DA019116BD
:023FFE000800B9
:020000040001F9
:08000E008C3FF33FFF3FFF3F71
:00000001FF
