:020000040000FA
:0400000080313C28E7
:100008007E1480310B1F09280A283A282100911EE6
:100018000E280F281B282000911E132814281B289F
:10002800210049088A0048080A0080313A2821003E
:10003800111F1F28202829282000111F24282528BF
:1000480029289B31FE2380313A282100111E2D28B2
:100058002E283A282000111E322833283A28210059
:100068004B088A004A080A0080313A287E100900A5
:1000780080313E28F43084009B308500E5308600CE
:10008800003087000A309B31B7238031FA01FB0129
:10009800A03084000030850036309B31B123803198
:1000A800203084000130850047309B31B1238031F6
:1000B8007E1020009E31732E0130C4004408E707EB
:1000C80067086807C400440886000130870030309C
:1000D8000106031970287128602867080319752814
:1000E8007628E52B67086807C400440886000130B5
:1000F800870078300106031982288328902867082A
:100108006807C4004408860001308700583001069B
:10011800031D8F289028E52B6708013EC40044087A
:10012800E807E7019B280130C4004408E70767088F
:100138006807C40044088600013087003030010693
:100148000319A728A8289728E70167086807C400A3
:100158004408860001308700703001060319B5286D
:10016800B628462A67086807C40044088600013094
:10017800870050300106031DC228C328C428462A18
:1001880067086807C40044088600013087002E30DD
:100198000106031DD028D128D8285E16013020007A
:1001A800C4004408E707462A67086807C4004408EB
:1001B8008600013087000108C500C6014508F20025
:1001C8004608F3009E319C26803172087304031997
:1001D800EE28EF2870292000DD0167086807C400B1
:1001E80044088600013087000108D03EC500FF3072
:1001F80003180030C600003046020A3003194502D1
:10020800031C0729092901300A290030C700C80141
:100218004708CE004808CF004E084F040319152997
:100228001629232967086807C40044088600013096
:1002380087000108D03EC5004508DD003A29670857
:100248006807C40044088600013087000108C5001B
:10025800C6014508F8004608F9009D31D2258031CD
:100268007808C93E2000C7004708DD006208803AC8
:10027800C40080304402031D43290830610203187A
:1002880046294729662920005D08C400C501C60122
:10029800C7016108073CC8000130C835FF3E031D8F
:1002A80051294835890A5C29C435C50DC60DC70DC5
:1002B800890B58294408E3044508E4044608E50482
:1002C8004708E60401302000E1070030E23D043031
:1002D800DF070030E03D7A2900302000C3000030FD
:1002E800C2000030C1000030C000E52E0130C4005B
:1002F8004408E707A92867086807C4004408860077
:10030800013087007030010603198B298C294A2A8D
:1003180067086807C4004408860001308700503029
:100328000106031D982999299A294A2A6708680706
:10033800C400440886000130870030300106031DE0
:10034800A629A729B22961086204031DAC29AD2991
:10035800B229FC30DF07FF30E03DD2286708680784
:10036800C40044088600013087000108C500C601A2
:100378004508F2004608F3009E319C268031720839
:1003880073040319C829C929D2282000DD01670888
:100398006807C40044088600013087000108D03E81
:1003A800C500FF3003180030C600003046020A308E
:1003B80003194502031CE129E3290130E42900302F
:1003C800C700C8014708D0004808D10050085104A8
:1003D8000319EF29F029FD2967086807C4004408B4
:1003E8008600013087000108D03EC5004508DD00C1
:1003F800142A67086807C40044088600013087008B
:100408000108C500C6014508F8004608F9009D31F5
:10041800D22580317808C93E2000C7004708DD0092
:100428006208803AC40080304402031D1D2A083047
:1004380061020318202A212A402A20005D08C400EE
:10044800C501C601C7016108073CC8000130C835AD
:10045800FF3E031D2B2A4835890A362AC435C50DA7
:10046800C60DC70D890B322A4408E3044508E40485
:100478004608E5044708E60401302000E10700309B
:10048800E23DD2285E1A492A4A2A7F296708680766
:10049800C400440886000130870070300106031943
:1004A800562A572A6D2A67086807C4004408860038
:1004B80001308700503001060319632A642A6D2A27
:1004C8000030C3000030C2000030C1000030C0005E
:1004D800E52E0130C4004408E70767086807C40030
:1004E80044088600013087002B300106031D7D2A51
:1004F8007E2A832A0130C4004408E707922A670845
:100508006807C40044088600013087002D300106C2
:10051800031D8F2A902A922ADE157E2A6708C400B6
:100528004408E807E7019C2A0130C4004408E707AB
:1005380067086807C4004408860001308700303027
:1005480001060319A82AA92A982AE101E201D72A53
:1005580067080319B02AB12AC12A0A30F20000300C
:10056800F3006208F5006108F4009D314C258031E4
:1005780073082000E2007208E10067086807C400F9
:1005880044088600013087000108D03EC500FF30CE
:1005980003180030C6004508E1074608E23D01306F
:1005A800C4004408E70767086807C40044088600D1
:1005B800013087000108D03EC500FF300318003025
:1005C800C600003046020A3003194502031CED2A12
:1005D800EF2A0130F02A0030C700C8014708D200CE
:1005E8004808D30052085304031DFB2AFC2AAC2AEE
:1005F8006708031D002B012B0A2B0030C3000030B5
:10060800C2000030C1000030C000E52EDE1D0D2BF9
:100618000E2B132BE109E209E10A0319E20A61082A
:10062800DF076208E03D400803191B2B1C2B242B15
:1006380068086707C40040088600870144088100ED
:100648006608650464046304031D2B2B2C2B352BCF
:100658000030C3000030C2000030C1000030C000CC
:10066800E52EFF306305C40000306405C500003086
:100678006505C60000306605C7004708031D502BF6
:100688004608031D502B4508031D502B813044029A
:10069800031C4F2B502B652B00302000E307013043
:1006A800E43D0030E53D0030E63D652B0130E335A3
:1006B800E40DE50DE60D890B5B2BFF30DF07FF30FE
:1006C800E03D2000E61F692B6A2B5A2B6008803A10
:1006D800C4007F304402031D732B83305F0203186C
:1006E800762B772B842B81302000DF00FF30E00051
:1006F8000030E6000030E5000030E4000030E300A0
:10070800813020005F06031D8E2B600A03198D2B94
:100718008E2B992B0130E335E40DE50DE60D890BA1
:100728008F2BFF30DF07FF30E03D6008803AC400C0
:1007380080304402031DA22B80305F02031CA52BCE
:10074800A62BB32B00302000E6000030E500003077
:10075800E4000030E3008030DF000030E0000930C2
:100768002000E636E50CE40CE30C890BB42BFF30D3
:10077800E305FF30E4057F30E5050030E6055F0856
:100788007F3EC4000030603DC500FF304405C60010
:1007980000304505C7004608C8004708C900CA0117
:1007A800CB011730C835C90DCA0DCB0D890BD62B17
:1007B8004808E3044908E4044A08E5044B08E60449
:1007C800C42E5E1AE82BE92BF92B68088600013045
:1007D80087002E300106031DF22BF32BF92B5E1632
:1007E8000130C4004408E807E52B6808860001309A
:1007F80087000108D03EC400FF3003180030C50050
:10080800003045020A3003194402031C0C2C0E2C3C
:1008180001300F2C0030C600C7014608D400470835
:10082800D50054085504031D1A2C1B2C1C2C682CAD
:10083800DE140930610662040319232C242C5F2C72
:100848005E1E272C282C2C2CFF30DF07FF30E03DC4
:100858000130E1070030E23D0030F5000030F400DF
:100868000030F3000A30F2006608F9006508F80065
:100878006408F7006308F6009E31FC26803175088D
:100888002000E6007408E5007308E4007208E3003D
:1008980068088600013087000108D03EC400C50101
:1008A800C601C7014408E3074508E43D4608E53D9D
:1008B8004708E63DF42B5E1A622C632CF42B0130BA
:1008C800DF070030E03DF42BE101E2016808860013
:1008D80001308700653001060319732C742C7E2CB7
:1008E800680886000130870045300106031D7D2C0D
:1008F8007E2C5E2D0130C4004408E8076808860095
:10090800013087002D300106031D8B2C8C2C922C76
:10091800DE150130C4004408E8079D2C68088600ED
:10092800013087002B300106031D9B2C9C2C9D2C2D
:100938008D2C6808860001308700303001060319C5
:10094800A62CA72C8D2C680886000130870001088A
:10095800D03EC400FF3003180030C5000030450207
:100968000A3003194402031CBA2CBC2C0130BD2CDC
:100978000030C600C7014608D6004708D700560809
:1009880057040319C82CC92C552D68088600013056
:1009980087000108D03EC400C5014408E1004508AD
:1009A800E2000130C4004408E80768088600013006
:1009B80087000108D03EC400FF3003180030C5008E
:1009C800003045020A3003194402031CEC2CEE2CBB
:1009D8000130EF2C0030C600C7014608D800470890
:1009E800D900580859040319FA2CFB2C552D68080E
:1009F8008600013087000108D03EC400C5016208A6
:100A0800F3006108F2000A30F4000030F5009D316F
:100A18004C258031200044087207E1004508733DE9
:100A2800E2000130C4004408E80768088600013085
:100A380087000108D03EC400FF3003180030C5000D
:100A4800003045020A3003194402031C2C2D2E2DB8
:100A580001302F2D0030C600C7014608DA004708CC
:100A6800DB005A085B0403193A2D3B2D552D680805
:100A78008600013087000108D03EC400C501620825
:100A8800F3006108F2000A30F4000030F5009D31EF
:100A98004C258031200044087207E1004508733D69
:100AA800E200DE1D582D592D5E2DE109E209E10A0B
:100AB8000319E20A6108DF076208E03D40080319EC
:100AC800662D672D722DDE1C6A2D6B2D722D680820
:100AD800C400400886008701440881006608F500C4
:100AE8006508F4006408F3006308F20000309131EF
:100AF8008D21803175082000E6007408E500730830
:100B0800E4007208E3006608F5006508F40064086C
:100B1800F3006308F2000030F9000030F8000030FC
:100B2800F7000030F6009F31B1278031031C9D2D5E
:100B38009E2DA82D00302000C3000030C2000030D8
:100B4800C1000030C000E52E2000E01FAC2DAD2D07
:100B5800372EDF09E009DF0A0319E00AD42D5030E7
:100B6800F5001530F4000230F300F930F2002000EF
:100B78006608F9006508F8006408F7006308F600DD
:100B88008931BD21803175082000E6007408E50030
:100B98007308E4007208E300F630DF07FF30E03D39
:100BA8006008803AC40080304402031DDD2D0A30FD
:100BB8005F020318E02DE12DB32D022E4130F50020
:100BC8002030F4000030F3000030F2006608F9002D
:100BD8006508F8006408F7006308F6008931BD214C
:100BE800803175082000E6007408E5007308E40009
:100BF8007208E300FF30DF07FF30E03D20005F08A8
:100C08006004031D082E092EE22D6608F50065080C
:100C1800F4006408F3006308F2000030F900803043
:100C2800F8000030F7000030F600913102218031E1
:100C380003181F2E202EC42E20005E1C242E252EC5
:100C48002E2E8030C3008030C2000030C10000303A
:100C5800C000E52E0030C3008030C2000030C10063
:100C68000030C000E52E6008803AC400803044029D
:100C7800031D402E01305F02031C432E442EC42E58
:100C8800652E5030A9001530A8000230A700F930B1
:100C9800A6006608AD006508AC006408AB006308F0
:100CA800AA008D31A925803120002908E6002808EE
:100CB800E5002708E4002608E300F630DF07FF30E8
:100CC800E03D0030200060020A3003195F0203187B
:100CD8006E2E6F2E452E902E4130A9002030A80090
:100CE8000030A7000030A6006608AD006508AC001B
:100CF8006408AB006308AA008D31A9258031200063
:100D08002908E6002808E5002708E4002608E3008B
:100D1800FF30DF07FF30E03D5F086004031D952EBC
:100D2800962E702E7F30F5007F30F400FF30F300F0
:100D3800FF30F2006608F9006508F8006408F7005B
:100D48006308F6009131022180310318AC2EAD2ED4
:100D5800C42E20005E1CB12EB22EBB2E8030C300E4
:100D68008030C2000030C1000030C000E52E0030E5
:100D7800C3008030C2000030C1000030C000E52E42
:100D880020005E1CC82EC92EDD2E6608F5006508F9
:100D9800F4006408F3006308F2009C3109248031F0
:100DA80075082000E6007408E5007308E40072087E
:100DB800E3006608C3006508C2006408C100630850
:100DC800C000080021003508803ADE0080305E024D
:100DD800031DF02E0B303402031CF32EF42E122FB9
:100DE8009B317523863173082100BB007208BA0055
:100DF8001E30D6009830D7003B08D9003A08D800F2
:100E08009C317F24863121302100D6009830D700CC
:100E18009C317F2486312100B401B50101302100C5
:100E2800B4070030B53D9B31CD238631003A031914
:100E38001E2F1F2FEB2F2100B601B7010230210012
:100E4800DF003830DE00AD30890B282FDE0B282F6D
:100E5800DF0B282F3F2F9D31F82586312100DE003A
:100E68003608203E8600013087005E088100013088
:100E7800B6070030B73D9B31CD238631003A031DBC
:100E8800462F472F2F2F21003608203E860001309D
:100E980087008101220020082100DE005E08D000C2
:100EA8005008DE00DF015E08F8005F08F9009D3198
:100EB800D225863178082100E0006008D000E101E1
:100EC800E20121006108213E860001308700010807
:100ED800DE006108603E8600013087005E08810000
:100EE8000130E1070030E23D6208803ADE008030E0
:100EF8005E02031D812F08306102031C842F852F99
:100F0800652FD72F603092313A2286317908210037
:100F1800B9007808B8003908F3003808F2009B31A6
:100F28007B238631EB2F60309C315824863120009A
:100F38006C082100A30020006B082100A2002000FB
:100F48006A082100A100200069082100A0002308E8
:100F5800F5002208F4002108F3002008F2009B3174
:100F6800E0238631EB2F60309C31582486312000F5
:100F78006C082100A70020006B082100A6002000B3
:100F88006A082100A500200069082100A40027089C
:100F9800F5002608F4002508F3002408F2009B3128
:100FA800D6238631EB2F21005008DE00DF015F08D1
:100FB800003A0319E02FEB2F5E08493A0319B72FBF
:100FC800193A0319972F033A0319862FEB2F0800B4
:100FD800203021009E0005309F009B019C010130BC
:100FE8009D0011170030F2000030F3009B318D2373
:060FF8008731080008002B
:101000007B08283E860001308700810123001D1DDA
:101010000A280B2817287B08283E86000130870005
:101020008114210047088A0046080A0088312300FD
:101030009D1C1B281C2828287B08283E8600013080
:1010400087000115210045088A0044080A008831FC
:101050007B08283E860001308700010803193128EB
:1010600032283928210043088A0042080A008831C2
:101070003C289C31FA24883108002000E800400810
:1010800003194328442850286808C40040088600F3
:1010900087014408810050280130C4004408E80753
:1010A000DC01DC0A68088600013087002030010678
:1010B00003195B285D2801305E280030C400C5019B
:1010C0004408E1004508E20061086204031D692844
:1010D0006A28852868088600013087000108C40056
:1010E000C5014408E1004508E2006108F73EC6007A
:1010F000FF30623DC7000030470205300319460249
:10110000031C832884288528DC015C08C400C501F1
:101110004408CC004508CD004C084D04031D91281F
:1011200092284C28DE012D3061066204031D9928A7
:101130009A28A128DE01DE0A0130C4004408E8072D
:10114000A9282B3061066204031DA728A828A92816
:101150009C28E701AF280130C4004408E70767086E
:101160006807C4004408860001308700010803199D
:10117000BA28BB28E7286708093E8400983003187E
:10118000013E85000008C40067086807C5004508DF
:10119000860001308700010844060319D028D128B1
:1011A000AB286708003E840098300318013E850094
:1011B0000008C40067086807C500450886000130BC
:1011C0008700010844060319E628E728AB28033006
:1011D0006702031CEC28ED280E297F30E6008030E2
:1011E000E5000030E4000030E30040080319F9286E
:1011F000FB288631C42E083067060319002901290F
:1012000005290330C4004408E70068086707C400E4
:1012100040088600870144088100F928E701142965
:101220000130C4004408E70767086807C4004408A1
:10123000860001308700010803191F2920294C2945
:1012400067081A3E840098300318013E85000008A4
:10125000C40067086807C50045088600013087009C
:101260000108440603193529362910296708123E5A
:10127000840098300318013E85000008C400670808
:101280006807C5004508860001308700010844064C
:1012900003194B294C29102903306706031D5129D6
:1012A0005229AE292230F2009830F3009C314724B5
:1012B000883175082000E6007408E5007308E40032
:1012C0007208E3004008031966296729F9286708AE
:1012D000C4004408E8076808860001308700283009
:1012E0000106031D74297529A629E7017B29013010
:1012F000C4004408E70767086807C400440886007C
:101300000130870001080319862987299429670875
:101310006807C400440886000130870029300106B0
:10132000031D93299429772967086807C400440896
:1013300086000130870029300106031DA029A1295C
:10134000A6296708013EC4004408E8076808C400ED
:1013500040088600870144088100F928E101E20184
:101360000030E6000030E5000030E4000030E3002B
:10137000DF01E001E701803164287908803920002D
:10138000A0002008A9007935A0002008B000F81FAF
:10139000CA29CB29CC29301430080319D029D129E6
:1013A000E129300A031DD529D629DE290030F900AC
:1013B0000030F8000030F7000030F600F817F901AF
:1013C000E9290030F9000030F8000030F700003063
:1013D000F60075088039A0002008A9067535A00020
:1013E0002008B100F41FF529F629F7293114310836
:1013F0000319FB29FC290C2A310A031D002A012AA2
:10140000092A0030F5000030F4000030F30000300D
:10141000F200F417F501142A0030F5000030F40052
:101420000030F3000030F200750874047304720495
:10143000031D1B2A1C2A352A0030F9000030F80051
:101440000030F7000030F6008030F8047F30F904F7
:101450002908A0002008F9047908F5007808F400AC
:101460007708F3007608F200702B3008031D392A44
:101470003A2A432A0030F5000030F4000030F3002F
:101480000030F200702B3008A000A1012108A30059
:1014900031082002A200031CA30322087F3EAA00F9
:1014A0000030233DAB007908A8007808A700770832
:1014B000A6007608A5000030F9000030F8000030E2
:1014C000F7000030F6000030AF000030AE00003012
:1014D000AD000030AC00B101AB2A31080319712A0C
:1014E000722A8C2A0130A535A60DA70DA80D890BEF
:1014F000732A0130F635F70DF80DF90D890B7A2AAC
:10150000AF1F832A842A852A76140130AC35AD0DAD
:10151000AE0DAF0D890B862A75082802031D9A2A85
:1015200074082702031D9A2A73082602031D9A2AAB
:1015300072082502031C9D2A9E2AA72A2F177208CB
:10154000A5027308A63B7408A73B7508A83B0130A9
:10155000A0002008B1071A303102031CB02AB12ABA
:101560006D2A28082704260425040319B82AB92A55
:10157000D22A2C14D22A0130F635F70DF80DF90DC8
:10158000890BBC2AAF1FC52AC62AC72A7614013088
:10159000AC35AD0DAE0DAF0D890BC82AFF30AA07D3
:1015A000FF30AB3DF81FD52AD62ABB2AB101AF1FA9
:1015B000DA2ADB2AF72AFF302C05A000FF302D05A0
:1015C000A100FF302E05A2007F302F05A3002308C5
:1015D0002204210420040319EE2AEF2AF22AB10181
:1015E000B10AF72A761CF52AF62AF72AEF2A3108DB
:1015F0000319FB2AFC2A242B0130F6070030F73DA3
:101600000030F83D0030F93D791C072B082B242BC6
:101610007608A0007708A1007808A2007908A30046
:101620000130A400A337A20CA10CA00CA40B122B18
:101630002308F9002208F8002108F7002008F60026
:101640000130AA070030AB3D2B08803AA000803063
:101650002002031D2D2BFF302A02031C302B312BBF
:101660003E2BFF302000AA000030AB000030F90014
:101670000030F8000030F7000030F60020002B08A2
:10168000803AA00080302002031D482B01302A023E
:1016900003184B2B4C2B582B2000AA01AB01003018
:1016A000F9000030F8000030F7000030F600A90122
:1016B00020002A08A0002008B000301C602B612BFD
:1016C000632BF817672B7F30A0002008F805303611
:1016D000A0002008F9002908A0002008F9042C2AFD
:1016E0000800200043088039C8004808D00043356E
:1016F000C8004808D200C21F7E2B7F2B802B5214BB
:1017000052080319842B852B952B520A031D892B14
:101710008A2B922B0030C3000030C2000030C10081
:101720000030C000C217C3019D2B0030C300003041
:10173000C2000030C1000030C00047088039C80036
:101740004808D100510850060319A72BA82BA92B34
:1017500050174735C8004808D100C61FB02BB12B21
:10176000B22B511451080319B62BB72BC72B510AB2
:10177000031DBB2BBC2BC42B0030C7000030C600A0
:101780000030C5000030C400C617C701CF2B0030A1
:10179000C7000030C6000030C5000030C400520849
:1017A00051020318D42BD52B192C501FD82BD92B11
:1017B000DD2B8030C8004808D0065208C800480811
:1017C000D3005108C8004808D2005308C800480890
:1017D000D1004008C8004808D3004408C8004808A1
:1017E000C0005308C8004808C4004108C8004808A1
:1017F000D3004508C8004808C1005308C80048087D
:10180000C5004208C8004808D3004608C800480878
:10181000C2005308C8004808C6004308C80048086A
:10182000D3004708C8004808C3005308C800480848
:10183000C700D3015108C800C9014908CB005208AC
:101840004802CA00031CCB034B08803ACC0080300E
:101850004C02031D2D2C1A304A02031C302C312C53
:10186000692C20004308420441044004031D392C24
:101870003B2C01303C2C0030C8004808D30000301D
:10188000C3000030C2000030C1000030C000510869
:10189000C8004808D200702C531C4F2C502C562CDA
:1018A00053360138C8004808D300582C0310D30C15
:1018B000401C5B2C5C2C5D2CD3170130C800C33757
:1018C000C20CC10CC00CC80B5F2C0130C80048080A
:1018D000D207200051085202031C6F2C702C4C2C94
:1018E000501B732C742CAC2C5208031D782C792CB3
:1018F000822C0030C3000030C2000030C100003034
:10190000C000A82D4408C0074508C13D4608C23D97
:101910004708C33D431C8D2C8E2C382D531C912C15
:10192000922C982C53360138C8004808D3009A2CC2
:101930000310D30C401C9D2C9E2C9F2CD3170130E0
:10194000C800C337C20CC10CC00CC80BA12C01309D
:10195000C8004808D207382D4308803AC800470815
:10196000803A4802031DBE2C46084202031DBE2CCD
:1019700045084102031DBE2C440840020318C12C37
:10198000C22CFA2CFF30C800FF30C900FF30CA005B
:10199000FF30CB0040084402CC004108453BCD005D
:1019A0004208463BCE004308473BCF004C08C807DF
:1019B0004D08C93D4E08CA3D4F08CB3D4B08C300FA
:1019C0004A08C2004908C1004808C0008030C80069
:1019D0004808D006D309D30A5308031DF02CF12C74
:1019E000022D0130C0070030C13D0030C23D003043
:1019F000C33D022D4408C0024508C13B4608C23B16
:101A00004708C33B4308420441044004031D092D19
:101A10000A2D342D5308031D0E2D0F2D342D0030AB
:101A2000C3000030C2000030C1000030C000A82D4B
:101A30000130C035C10DC20DC30D890B192DD31F47
:101A4000222D232D242D4014531C272D282D2B2DE2
:101A50000314D30D2D2D0310D30D52080319312D6E
:101A6000322D342D0130D202C21F372D382D182DC2
:101A7000D101D31F3C2D3D2D4B2D53087F39031928
:101A8000422D432D462DD101D10A4B2D401C492D0D
:101A90004A2D4B2D432D510803194F2D502D7D2DCF
:101AA0000130C0070030C13D0030C23D0030C33DB1
:101AB000431C5B2D5C2D7D2D4008C8004108C900EA
:101AC0004208CA004308CB000130CC00CB37CA0C17
:101AD000C90CC80CCC0B662D4B08C3004A08C200C9
:101AE0004908C1004808C000520A0319782D792D11
:101AF0007D2D0130C8004808D207520A0319812DF4
:101B0000822D872D5208031D862D872D952D00309F
:101B1000C3000030C2000030C1000030C0005208D5
:101B2000031D932D942D952DD001521C982D992D88
:101B30009B2DC2179F2D7F30C8004808C205523622
:101B4000C8004808C300D01FA62DA72DA82DC31775
:101B50000800200029088039AE002E08B30029357E
:101B6000AE002E08B900A81FB62DB72DB82D391418
:101B700039080319BC2DBD2DCC2D390A031DC12DEB
:101B8000C22DCA2D0030A9000030A8000030A700E7
:101B90000030A600A817D42D0030A9000030A800FE
:101BA0000030A7000030A6002D088039AE002E08B6
:101BB000B3062D35AE002E08B400AC1FE02DE12D8C
:101BC000E22D341434080319E62DE72DF62D340ADE
:101BD000031DEB2DEC2DF42D0030AD000030AC00DA
:101BE0000030AB000030AA00AC17FE2D0030AD0075
:101BF0000030AC000030AB000030AA0034080319FC
:101C0000022E032E082E3908031D072E082E112E32
:101C10000030A9000030A8000030A7000030A60066
:101C2000FF2F2608AE002E08F2002C089D31AE25AD
:101C30008D3173082000BF007208BE003E08AE0060
:101C4000AF01B001B1013108B8003008B7002F086A
:101C5000B6002E08B5003F08AE00AF01B001B101DB
:101C60003108BD003008BC002F08BB002E08BA00A8
:101C70002708AE002E08F2002B089D31AE258D31CD
:101C800073082000BF007208BE003E08AE00AF011E
:101C9000B001B1012E08B5072F08B63D3008B73D99
:101CA0003108B83D3F08AE00AF01B001B1012E08C8
:101CB000BA072F08BB3D3008BC3D3108BD3D2808A0
:101CC000AE002E08F2002A089D31AE258D31730832
:101CD0002000BF007208BE003E08AE00AF01B00198
:101CE000B1012E08B5072F08B63D3008B73D3108C1
:101CF000B83D3F08AE00AF01B001B1012E08BA07F0
:101D00002F08BB3D3008BC3D3108BD3D0830B5351E
:101D1000B60DB70DB80D890B872E2708AE002E081B
:101D2000F2002A089D31AE258D3173082000BF00D6
:101D30007208BE003E08B5073F08B63D0030B73D0B
:101D4000B83D2608AE002E08F2002B089D31AE25C6
:101D50008D3173082000BF007208BE003E08B50731
:101D60003F08B63D0030B73DB83D0830B535B60D3B
:101D7000B70DB80D890BB62E2608AE002E08F2005E
:101D80002A089D31AE258D3173082000BF007208EE
:101D9000BE003E08B5073F08B63D0030B73DB83D30
:101DA0002708AE002E08F2002C089D31AE258D319B
:101DB00073082000BF007208BE003E08BA073F0843
:101DC000BB3D0030BC3DBD3D2808AE002E08F200F2
:101DD0002B089D31AE258D3173082000BF0072089D
:101DE000BE003E08BA073F08BB3D0030BC3DBD3DCC
:101DF0002808AE002E08F2002C089D31AE258D314A
:101E000073082000BF007208BE003E08AE003F0805
:101E1000AF00B001B1010830AE35AF0DB00DB10D5E
:101E2000890B0C2F2E08BA072F08BB3D3008BC3D8C
:101E30003108BD3D3508AE003608AF003708B000A8
:101E40003808B1001830B136B00CAF0CAE0C890BAD
:101E5000232F2E08BA072F08BB3D3008BC3D3108A0
:101E6000BD3D0830B535B60DB70DB80D890B322F15
:101E700039083407AE00AF01AF0D2E08823EBE0018
:101E8000FF302F3DBF005B2F0130BA35BB0DBC0DBD
:101E9000BD0D890B452FB81F4E2F4F2F502F3A14D1
:101EA0000130B535B60DB70DB80D890B512FFF3088
:101EB000BE07FF30BF3DBC1F5E2F5F2F442FB40114
:101EC000B81F632F642F802FFF303505AE00FF3021
:101ED0003605AF00FF303705B0007F303805B10060
:101EE000310830042F042E040319772F782F7B2F0D
:101EF000B401B40A802F3A1C7E2F7F2F802F782FB9
:101F000034080319842F852FAD2F0130BA07003014
:101F1000BB3D0030BC3D0030BD3D3D1C902F912F9E
:101F2000AD2F3A08AE003B08AF003C08B0003D08BA
:101F3000B1000130B200B137B00CAF0CAE0CB20B37
:101F40009B2F3108BD003008BC002F08BB002E08B5
:101F5000BA000130BE070030BF3D3F08803AAE00F6
:101F600080302E02031DB62FFF303E02031CB92F16
:101F7000BA2FC42F7F302000BD008030BC0000305D
:101F8000BB000030BA00F32F20003F08803AAE00BB
:101F900080302E02031DCE2F01303E020318D12FB8
:101FA000D22FDD2F00302000BD000030BC000030FB
:101FB000BB000030BA00B301F32F20003E08AE0092
:101FC0002E08B900FF30BA05FF30BB057F30BC05D5
:101FD0000030BD05391CED2FEE2FEF2FBC17393621
:101FE000AE002E08BD003308AE002E08BD043D082B
:101FF000A9003C08A8003B08A7003A08A600080072
:1020000020001F15080022008C018D018E01373041
:1020100021008C0030308D007D308E00ED302300AB
:102020008E0050308D0037308C0024008D018C01E3
:102030008E0125008C018D018E01373026008C0029
:10204000F0308D00FF308E003F3027008C00F030E4
:102050008D00FF308E000D303C00A40014303D0098
:102060009F000230A10008002000B3002100321CB4
:102070003A283B28442820003308F9007908F80062
:102080002C089E314A2690312000AE1B4828492852
:102090004E282E08B2002D08B1005028B101B2011F
:1020A000AF01B00164282030F5000030F6002000B8
:1020B0003308F9007908F7009F317127903101301A
:1020C0002000AF070030B03D3008803AF9003208F8
:1020D000803A7902031D6E2831082F02031C7128F3
:1020E000722853282100321876287728802820006B
:1020F0003308F9007908F8002C089E314A269031FF
:1021000020002C089C31E024903120003108720717
:10211000AC003208733DAD00080003102000560DDE
:10212000570DD8005808DE005E08031D982899282E
:10213000A2280030D7000030D6000030D500003093
:10214000D40001295408D8005508D9005608DA00EF
:102150005708DB001F30DB36DA0CD90CD80C890BA2
:10216000AB285808DC005C08DD00D617FF30D4052A
:10217000FF30D505FF30D6050030D7059630DE029A
:10218000DE1FC328C428DC285E08803A973E031867
:10219000CA28CB28CC2899280130D736D60CD50CA4
:1021A000D40C890BCD280130D8005808DE07031D58
:1021B000DA28DB28CC28F12820305E02031CE12835
:1021C000E228EC2899280130D435D50DD60DD70D4D
:1021D000890BE4280130DE025E08031DF028F12897
:1021E000E3285D080319F528F6280129D409D50943
:1021F000D609D709D40A0319D50A0319D60A03192F
:10220000D70A0800003072052000A00000307305D6
:10221000A10080307405A2007F307505A30023085B
:10222000220421042004031D162917291F29003028
:10223000F5000030F4000030F3000030F200003010
:102240007605A00000307705A10080307805A20057
:102250007F307905A3002308220421042004031DF4
:10226000322933293B290030F9000030F8000030D2
:10227000F7000030F600F51F3E293F2957290030AE
:10228000A0000030A1000030A2008030A30072083E
:10229000A0027308A13B7408A23B7508A33B230866
:1022A000F5002208F4002108F3002008F200F91FCD
:1022B0005A295B2973290030A0000030A1000030AA
:1022C000A2008030A3007608A0027708A13B78081E
:1022D000A23B7908A33B2308F9002208F800210853
:1022E000F7002008F6008030F5068030F9067908FE
:1022F0007502031D852978087402031D8529770856
:102300007302031D8529760872020318882989291A
:102310008B2903108C29031408002000A00020083A
:10232000031993299429A829F51F97299829A829E1
:102330007209A2007309A3007409A4007509A5001D
:10234000A20A0319A30A0319A40A0319A50AB029AA
:102350007508A5007408A4007308A3007208A20001
:102360007508740473047204031DB729B829C129C0
:102370000030F5000030F4000030F3000030F200CF
:10238000392A9630F6007608A100D1290130F600EE
:102390007608A1070130A536A40CA30CA20C890B6A
:1023A000CB29FE302505031DD629D729C629EB29BF
:1023B0000130F6007608A1070130A2070030A33DE6
:1023C0000030A43D0030A53D0130A536A40CA30C7F
:1023D000A20C890BE529FF302505031DF029F12901
:1023E000D829FB290130A1020130A235A30DA40D8B
:1023F000A50D890BF529A41BFE29FF29052A02300A
:1024000021020318042A052AF2292118082A092A78
:10241000112AFF30A205FF30A3057F30A405FF304D
:10242000A5050310A10C2108F600F701F801F90138
:102430001830F635F70DF80DF90D890B192A7608C5
:10244000A2047708A3047808A4047908A504200846
:1024500003192B2A2C2A312AF51F2F2A302A312A38
:10246000A5172508F5002408F4002308F300220826
:10247000F20008002000AD00AB01AC01A401A501F1
:10248000452A0130A0002008AD07AA01AA0A2D089C
:10249000860001308700203001060319502A512A96
:1024A000662A2D088600013087000108F73EA0004B
:1024B000FF3003180030A10000302102053003195D
:1024C0002002031C642A652A662AAA012A08A000A1
:1024D000A1012008A6002108A70026082704031D43
:1024E000722A732A412A7D2A0130A4000030A500F7
:1024F0000130A0002008AD07AF2A2D08860001306A
:1025000087000108A000A1012108003A0319892AC7
:10251000AF2A20082B3A0319782A063A0319742A9D
:10252000AF2A2D088600013087002C08F3002B0805
:10253000F2000A30F4000030F5009D314C25923154
:1025400073082000A10001087202A000031CA1036F
:102550002008303EAB000030213DAC00782A2D0829
:102560008600013087000108D03EA000FF3003182C
:102570000030A100003021020A3003192002031CA0
:10258000C22AC42A0130C52A0030A200A3012208B1
:10259000A8002308A90028082904031DD02AD12A4D
:1025A000912A24082504031DD62AD72AE32A2B09B9
:1025B000A0002C09A100A00A0319A10A2008F80014
:1025C0002108F900E72A2C08F9002B08F800080078
:1025D0002000E700580886008701403FDA00413FAD
:1025E000DB005A0884005B0885001200253A031DB1
:1025F000FA2AFB2A9F2B58088600870101308107A1
:1026000041310318810A2100AE01AF01B201B301CB
:10261000FF30B000FF30B10020005808860087016D
:10262000403FDA00413FDB005A0884005B08850028
:102630001200643A03191D2B1E2B2F2B58088600FD
:102640008701403FDA00413FDB005A0884005B0805
:1026500085001200693A031D2E2B2F2B6A2B580878
:10266000860087010130810741310318810A59082A
:102670008600870101088400850102308107003F40
:10268000DA00013FDB005A08DF005B08E000890D3B
:10269000893B8909E100E200E300E400E500E6008F
:1026A0005F08BA006008BB006108BC006208BD009A
:1026B0006308BE006408BF006508C0006608C1006A
:1026C000670896319026923120003B08D9003A08DD
:1026D000D800C22B580886008701403FDA00413FEE
:1026E000DB005A0884005B0885001200253A031DB0
:1026F0007A2B7B2B942B58088600870101308107A9
:1027000041310318810A2530F5000030F6006708D2
:10271000DA005A08F7009F3171279231013020000A
:10272000D8000030D900C22B58088600870101303C
:10273000810741310318810AD801D901C22B5808F9
:1027400086008701403FDA00413FDB005A088400E1
:102750005B0885000008DC00DD015C08F5005D0811
:10276000F6006708DE005E08F7009F31712792319E
:102770002000580886008701013081074131031885
:10278000810A8E2B08009B31872393317308210027
:10279000C1007208C00040086D02BE0041086E3BD7
:1027A000BF003E08F2003F08F300890D893B89090C
:1027B000F400F500013091318D219331750820002E
:1027C000C3007408C2007308C1007208C000210071
:1027D0002B082000C70021002A082000C600210085
:1027E00029082000C500210028082000C4008B31E2
:1027F00071239331200043082100AB0020004208E0
:102800002100AA00200041082100A9002000400862
:102810002100A8003E08F2003F08F300890D893B23
:102820008909F400F500013091318D21933175084B
:102830002000AD007408AC007308AB007208AA0059
:10284000210068082000A900210067082000A800D6
:10285000210066082000A700210065082000A600CE
:102860008D31A925933120002908C7002808C6000A
:102870002708C5002608C40021006C082000AD0010
:1028800021006B082000AC0021006A082000AB008A
:10289000210069082000AA0021002B082000A900BF
:1028A00021002A082000A800210029082000A700F4
:1028B000210028082000A6008D31A9259331200091
:1028C0002908C3002808C2002708C1002608C00044
:1028D0008B317123933120004308D7004208D60082
:1028E0004108D5004008D40090318D20933120005C
:1028F00055082100BD00200054082100BC003D08FF
:10290000803A2000DF0081305F02031D8A2C0030F6
:1029100021003C02031C8D2C8E2C932CFF302100B7
:10292000BC000030BD002100BD1F972C982C9A2CB4
:10293000BC01BD013D08F3003C08F2009C31692454
:1029400093310800F4012830860000308700473FAB
:10295000F200F21FAC2CAD2CCE2C2000A809A90946
:10296000AA09AB09AC09AD09AE09AF09A80A031D54
:10297000CC2CA90A031DCC2CAA0A031DCC2CAB0A13
:10298000031DCC2CAC0A031DCC2CAD0A031DCC2C92
:10299000AE0A031DCC2CAF0AF401F40A20308600E5
:1029A00000308700473FF200F21FD72CD82CF72CBD
:1029B0002000A009A109A209A309A409A509A60943
:1029C000A709A00A031DF72CA10A031DF72CA20AD0
:1029D000031DF72CA30A031DF72CA40A031DF72CD3
:1029E000A50A031DF72CA60A031DF72CA70A200031
:1029F0002008210422042304240425042604270497
:102A00000319032D042D572DF301F30A132DA035BF
:102A1000A10DA20DA30DA40DA50DA60DA70D0130AE
:102A2000F2007208F307A71F162D172D072D270890
:102A30002F02031D352D26082E02031D352D2508D6
:102A40002D02031D352D24082C02031D352D2308CE
:102A50002B02031D352D22082A02031D352D2108C6
:102A60002902031D352D20082802031C382D392D7D
:102A7000492D2008A8022108A93B2208AA3B2308C7
:102A8000AB3B2408AC3B2508AD3B2608AE3B2708F2
:102A9000AF3BA736A60CA50CA40CA30CA20CA10C52
:102AA000A00C0130F302031D562D572D172D74086D
:102AB00003195B2D5C2D7A2DA809A909AA09AB0978
:102AC000AC09AD09AE09AF09A80A031D7A2DA90A00
:102AD000031D7A2DAA0A031D7A2DAB0A031D7A2D38
:102AE000AC0A031D7A2DAD0A031D7A2DAE0A031D13
:102AF0007A2DAF0A20002808A0002908A1002A0882
:102B0000A2002B08A3002C08A4002D08A5002E0865
:102B1000A6002F08A70008002000B1012030860081
:102B200000308700473FF200F21F972D982DBA2DF5
:102B30002000A009A109A209A309A409A509A609C1
:102B4000A709A00A031DB72DA10A031DB72DA20ACC
:102B5000031DB72DA30A031DB72DA40A031DB72D0E
:102B6000A50A031DB72DA60A031DB72DA70A20002D
:102B7000B101B10A2830860000308700473FF200DB
:102B8000F21FC32DC42DE82D2000A809A909AA0908
:102B9000AB09AC09AD09AE09AF09A80A031DE32DC5
:102BA000A90A031DE32DAA0A031DE32DAB0A031D89
:102BB000E32DAC0A031DE32DAD0A031DE32DAE0A80
:102BC000031DE32DAF0A0130F20072082000B106A8
:102BD00032308600003087000830F20000301E00DE
:102BE000F20BEF2D200020082104220423042404EA
:102BF0002504260427040319FE2DFF2D5B2EB001AA
:102C0000B00A0E2EA035A10DA20DA30DA40DA50D89
:102C1000A60DA70D0130F2007208B007A71F112EF4
:102C2000122E022EB235B30DB40DB50DB60DB70D83
:102C3000B80DB90D27082F02031D382E26082E02C5
:102C4000031D382E25082D02031D382E24082C02C2
:102C5000031D382E23082B02031D382E22082A02BA
:102C6000031D382E21082902031D382E20082802B2
:102C7000031C3B2E3C2E4D2E2008A8022108A93B08
:102C80002208AA3B2308AB3B2408AC3B2508AD3BFC
:102C90002608AE3B2708AF3B3214A736A60CA50C7E
:102CA000A40CA30CA20CA10CA00C0130B002031DBB
:102CB0005A2E5B2E122E310803195F2E602E7E2EA7
:102CC000B209B309B409B509B609B709B809B90910
:102CD000B20A031D7E2EB30A031D7E2EB40A031D05
:102CE0007E2EB50A031D7E2EB60A031D7E2EB70A60
:102CF000031D7E2EB80A031D7E2EB90A200032085D
:102D0000A0003308A1003408A2003508A30036084B
:102D1000A4003708A5003808A6003908A700080055
:102D20002000C7003A08CE003B08CF003C08D00086
:102D30003D08D1003E08D2003F08D3004008D4002F
:102D40004108D5004E30860000308700473FC20062
:102D5000C21BAB2EAD2E0130AE2E00302000C300C2
:102D6000C4014308CC004408CD004C084D040319AD
:102D7000BA2EBB2ED92ECE09CF09D009D109D2093E
:102D8000D309D409D509CE0A031DD92ECF0A031DB4
:102D9000D92ED00A031DD92ED10A031DD92ED20A4D
:102DA000031DD92ED30A031DD92ED40A031DD92EF3
:102DB000D50A2100B11BDD2EDE2EE22EFD30B2053C
:102DC000FF30B3053108803A2000C2008030420253
:102DD000031DED2E0130210030020318F02EF12EDC
:102DE000F72E01302000C8000030C900FF2E21005E
:102DF00031082000C900210030082000C80021004F
:102E00002F082000CB0021002E082000CA004C080B
:102E10004D04031D0C2F0D2F122F2100321D112FD9
:102E2000122F172FFF302000CA07FF30CB3D1F3075
:102E30002000D6000030D7002200DF01882FFF30AD
:102E40002000D607FF30D73D0A30A000A101A20123
:102E5000A301A401A501A601A7014E08A8004F08DF
:102E6000A9005008AA005108AB005208AC00530852
:102E7000AD005408AE005508AF009431A22496313D
:102E800020002108F6002008F5009C31C624963168
:102E90007508303E2000C2005608403E86000130D2
:102EA000870042088100FF30C807FF30C93DFF306E
:102EB000CA07FF30CB3D0A30A000A101A201A30147
:102EC000A401A501A601A7014E08A8004F08A9006A
:102ED0005008AA005108AB005208AC005308AD00DE
:102EE0005408AE005508AF0095318C25963120006E
:102EF0002008CE002108CF002208D0002308D100EE
:102F00002408D2002508D3002608D4002708D500BD
:102F100020005708803AC20080304202031D922FE1
:102F200001305602031C952F962FC32F20004E0808
:102F30004F04500451045204530454045504031D17
:102F4000A22FA32F1F2F4908803AC20080304202CF
:102F5000031DAC2F013048020318AF2FB02F1F2FD5
:102F600020004B08803AC20080304202031DBA2F75
:102F700001304A02031CBD2FBE2FC32F2100B218FF
:102F8000C22FC32F1F2F20004C084D04031DC92F33
:102F9000CA2FCF2F2100321DCE2FCF2FEC2FFF3085
:102FA0002000D607FF30D73D4C084D04031DD92F14
:102FB000DA2FDF2F2B30C5000030C600E32F2D3075
:102FC000C5000030C6004508C2005608403E8600D5
:102FD000013087004208810020005608403EC200B0
:102FE0004208AC004B08AE004A08AD0047089031DB
:102FF0003420963120002D08BB002C08BA000800B0
:1030000049344E34463449344E34493454345934B6
:10301000003469346E34663469346E34693474341F
:10302000793400344E3441344E34003469346E34D3
:10303000663400346E3461346E34003425346434C4
:0630400000343E340034B0
:1036C20021009D1408009C31FA249B31080023003C
:1036D2001D121D1608001630210097000800200058
:1036E200100E890C0139080021004108F30040083E
:1036F200F200080073082100EE007208ED000800D5
:10370200F40074089E3121269B31080021004D08E7
:10371200F3004C08F200080073082100CF00720881
:10372200CE00080073082100C3007208C20008001E
:1037320073082100C7007208C60008007308210040
:10374200C5007208C400080073082100C90072088D
:10375200C800080073082100CB007208CA000800E4
:10376200640080010131890BB22B0034FE0012008B
:103772001E00FE0BB82B0034313020009E009D014C
:10378200911005309F0008003200910192019301CF
:10379200940195019601080021005208031DD22BC5
:1037A200D42B0130D52B0030080075082100EC0025
:1037B2007408EB007308EA007208E9000800750853
:1037C2002100E8007408E7007308E6007208E500CB
:1037D2000800833020009800263096009501901250
:1037E2008030970008000034003480343F340A34BB
:1037F200D734A3343B34C834003421001C08F00011
:10380200F1017008CC007108CD00200011130800EE
:1038120075087404730472040319102C112C132CF0
:103822008030F5060800320099019B019D010630A7
:103832009F009E011C1C1E2C1F2C1B2C080080307C
:103842002C00990018309800C03097001F08FC39EE
:1038520001389F000800F3007308F200F20DF20D28
:1038620021001D087206033972069D001D1408000E
:1038720012309C312C249C319B3161239C319B3131
:10388200BD239C31903100209C3108007F30F9002B
:10389200FF30F800FF30F700FF30F6007908F5003E
:1038A2007808F4007708F3007608F2000800200098
:1038B200EE00C0016E0888313D209C312000430893
:1038C200EC004208EB004108EA004008E900080069
:1038D2007308F5007208F400F536F40CF536F40CB2
:1038E20074082C00980072080339F4000530F4358E
:1038F200FF3E031D782C743597000800D830210054
:10390200DA005A08DD0057082000E90021005608B5
:103912002000E800DD302100DA005A082000EA0029
:1039220000309E31CB269C3108007208D03EF40054
:10393200FF30733DF500003075020A30031974023E
:10394200031CA42CA62C0130A72C0030F600F70192
:103952007608F2007708F300080072089F3EF40030
:10396200FF30733DF500003075021A3003197402FE
:10397200031CBC2CBE2C0130BF2C0030F600F7011A
:103982007608F2007708F30008007608803AF7001C
:1039920080307702031DCF2C013075020318D22C20
:1039A200D32CDF2C7509F7007609F800F70A031902
:1039B200F80A7708F5007808F600DF2C0800F60010
:1039C2007608F4007408F500EA2C0130F40074085B
:1039D200F60776088600013087000108031DF22CE5
:1039E200F32CE62C75087602F200F301F21BF303C6
:1039F200080023001908F0007B08303E86000130E1
:103A02008700700881000130F0007008FB07083061
:103A12007B02031C0D2D0E2D0F2DFB010130F0003A
:103A220070082100D2070800F5007508F400F40DB3
:103A3200F40D21001D087406033974069D001D143F
:103A42000D30890B222D000021009D149D182A2D76
:103A52002B2D272D1C08F3001B08F20008009B31B8
:103A6200C5239D31903103209D319C3114249D3119
:103A72009B316C239D318731EC279D319B31BD23D6
:103A82009D319C3120249D319B31EA239D319F3110
:103A920032279D310800F601F701721C512D522D7B
:103AA200562D7408F6077508F73D0130F435F50D0B
:103AB200890B572D0130F336F20C890B5C2D7208FD
:103AC2007304031D652D662D4E2D7708F3007608CD
:103AD200F2000800F601F60A203072067304031998
:103AE200732D742D842D7208F73EF400FF30733D60
:103AF200F50000307502053003197402031C822D93
:103B0200832D842DF6017608F400F5017408F20085
:103B12007508F30008000830210053020318922DA3
:103B2200932DAC2D5408383E8600013087000108E1
:103B320023009A000130F00070082100D4070830F9
:103B42005402031CA52DA62DA72DD4010130F0008F
:103B52007008D307AD2D111208002000A400A001A7
:103B6200A1017208F400F5017408A2007508A3000F
:103B7200241CBC2DBD2DC12D2208A0072308A13D68
:103B82000130A235A30D890BC22D0310A40C240809
:103B9200031DCC2DCD2DB92D2108F3002008F200F4
:103BA200080078089F3E2000A000FF30793DA10068
:103BB200003021021A3003192002031CE12DE32DEB
:103BC2000130E42D0030A200A3012208A400230842
:103BD200A500240825040319EF2DF02DF72D5F30E1
:103BE2007805F80000307905F900F72D080021006A
:103BF20052080319FD2DFE2DF82D7A08283E860065
:103C0200013087000108F2007208D1007A08303EC4
:103C12008600013087000108F2007208F3000130CB
:103C2200F2007208FA0708307A02031C192E1A2EC3
:103C32001B2EFA0191120130D2029116730808006C
:103C4200F300210053080319272E282E222E111AC1
:103C52002B2E2C2E302E730823009A00472E111281
:103C62007308F2005508383E86000130870072085A
:103C720081000130F2007208D50708305502031C9A
:103C8200432E442E452ED5010130D30221001116B8
:103C920008002000AB00A901AA01622E2808A50095
:103CA200A6012508F5002608F6007808A7002708CF
:103CB200F7009F3171279E3101302000A9070030A3
:103CC200AA3D29082B07A500250886000130870098
:103CD2000108A6002608A8002808031D712E722ECE
:103CE2004F2E08009D3130259E318B170B17103057
:103CF2009D3115259E3173082100E4007208E3000E
:103D02006408F5006308F4009C3139249E319B312C
:103D120070239E31003A03198F2E902E882E9B31EC
:103D2200EA239E319331C3239E318631E6269E31AA
:103D3200882E80313C28F801F80A7208D03EF4003F
:103D4200FF30733DF500003075020A30031974022A
:103D5200031CAC2EAD2EC32E20307204F4000030B2
:103D62007304F50074089F3EF600FF30753DF700BE
:103D720000307702063003197602031CC12EC22ED0
:103D8200C32EF8017808F400F5017408F2007508F2
:103D9200F30008002000ED006908EF006808EE005B
:103DA2002100AC01AD01E92E6E30EB006B08D800AA
:103DB2006A08EC006C08D9006D089231E8229E3145
:103DC200200058082100AC07200059082100AD3D11
:103DD20020006E0884006F0885001200031DF22E79
:103DE200F32ED52E21002D082000E90021002C08F9
:103DF2002000E800080000302000A3000030A200EC
:103E02000030A1000030A000721C082F092F122FD1
:103E120076082000A0077708A13D7808A23D79081E
:103E2200A33D0130F635F70DF80DF90D890B132F6F
:103E32000130F536F40CF30CF20C890B1A2F7508CD
:103E4200740473047204031D272F282F052F2000EA
:103E52002308F5002208F4002108F3002008F200EC
:103E62000800210091120030F2000830F3009B316B
:103E7200A5239F31210011128C30F2001D30F30076
:103E82009B31AB239F31083023009F0090309D006F
:103E920024309E0040309B0003309C00FE30F20034
:103EA2000730F3009B3199239F316830F2001B30B9
:103EB200F3009B319F239F316430F2001B30F300EB
:103EC2009B3193239F312100D101D501D4010830C8
:103ED200F4007408D300FB01FA01D2019116080024
:103EE20077080319752F762F7B2F7708031D7A2FFA
:103EF2007B2F802F75089B3181239F31B02F77084C
:103F0200033E86008701160001040319892F8A2FB8
:103F1200A82F7708033E86008701403F2000A000BB
:103F2200413FA100770A86008701403FA200413F3E
:103F3200A3002308803AA4002108803A2402031D2A
:103F4200A42F200822020318A72FA82FB02F770A28
:103F5200860087010130810741310318810A080078
:103F6200003072052000A00000307305A1008030EF
:103F72007405A2007F307505A300230822042104E2
:103F82002004031DC52FC62FCE2F0030F5000030B0
:103F9200F4000030F3000030F20000307605A0009B
:103FA20000307705A10080307805A2007F307905C6
:103FB200A3002308220421042004031DE12FE22F81
:103FC200EA2F0030F9000030F8000030F70000302E
:103FD200F60079087506031DF82F78087406031D8C
:103FE200F82F77087306031DF82F76087206031957
:0E3FF200FB2FFC2FFE2F0310FF2F03140800DF
:020000040001F9
:08000E008C3FF33FFF3FFF3F71
:00000001FF
